:020000040800F2
:10C000004814002005C10008E1030108C9F8000830
:10C010006DFC00087DC900081D3401080000000007
:10C02000000000000000000000000000752501086D
:10C0300093D4000800000000E3030108F92C010874
:10C040001FC100081FC100081FC100081FC1000850
:10C050001FC100081FC100081FC100081FC1000840
:10C060001FC100081FC100081FC100081FC1000830
:10C070001FC100081FC1000831D400084DD40008BA
:10C080001FC100081FC100081FC100081FC1000810
:10C090001FC100081FC100081FC1000895D4000877
:10C0A0001FC100081FC100081FC100081FC10008F0
:10C0B0001FC10008F12D01081FC100081FC10008A1
:10C0C0001FC100081FC100081FC100081FC10008D0
:10C0D0001FC10008ED3301081FC100081FC100087F
:10C0E0001FC100081FC100081FC10008DFF810D0E1
:10C0F00000F01EFB0048004711420108AFF300802A
:10C10000481400200648804706480047FEE7FEE73F
:10C11000FEE7FEE7FEE7FEE7FEE7FEE7FEE7FEE7F7
:10C12000A92D0108EDC00008202A04DB203A21FADD
:10C1300002F00021704721FA02F3D040C2F1200240
:10C14000914008431946704740EA01039B0703D01A
:10C1500009E008C9121F08C0042AFAD203E011F846
:10C16000013B00F8013B521EF9D27047D2B201E008
:10C1700000F8012B491EFBD270470022F6E710B5EC
:10C1800013460A4604461946FFF7F0FF204610BD45
:10C19000421C10F8011B0029FBD1801A704780EA6D
:10C1A000010210B502F00043400022D04A001FD027
:10C1B000010E01EB1261C0F35600C2F3560240F4C7
:10C1C000000042F40002A0FB022000047F391404A6
:10C1D00000D0401C50EA124001D44000491EC2B2B7
:10C1E0000C0604EBD010401C4008802A02D003E06B
:10C1F000002010BD20F00100002900DA00201843C3
:10C2000010BD30B480EA010202F0004530F0004277
:10C2100021F0004013D090B1C30DD40DC2F316012C
:10C22000C0F31600E41A41F4000140F400027D342A
:10C23000914201D3641C00E04900002C02DA30BCBA
:10C24000002070474FF400000023914201D3891A67
:10C25000034340084FEA4101F7D151B1914202D165
:10C260004FF0004105E002D24FF0010101E06FF014
:10C27000010103EBC450284430BC00F069B8C10F81
:10C2800080EAE0700844CA079623002100F069B8EC
:10C2900000F0004220F00040C10DC0F3160040F451
:10C2A00000007F2901DA00207047962903DCC1F1E4
:10C2B0009601C84001E096398840002AF4D04042F7
:10C2C000704730B50B46014600202022012409E0CA
:10C2D00021FA02F59D4205D303FA02F5491B04FA3F
:10C2E00002F52844151EA2F10102F1DC30BD2DE952
:10C2F000F05F0546002092469B46884606468146EA
:10C3000040241BE02846414647462246FFF70CFFE3
:10C3100053465A46C01A914110D311461846224638
:10C3200000F018FA2D1A67EB01084F46224601204B
:10C33000002100F00FFA17EB00094E41201EA4F176
:10C340000104DFDC484631462A464346BDE8F09FFB
:10C350000029A8BF7047401C490008BF20F0010019
:10C36000704710B4B0FA80FC00FA0CF050EA0104F7
:10C3700004BF10BC704749B1CCF1200421FA04F489
:10C3800011FA0CF118BF012121430843A3EB0C0162
:10C39000CB1D4FEA00614FEA102042BF002010BCC5
:10C3A000704700EBC35010440029A4BF10BC704775
:10C3B000401C490008BF20F0010010BC70472DE967
:10C3C000FE4F804681EA0300C00F0C46009021F02A
:10C3D000004123F00045B8EB0200A94105D24046D8
:10C3E000214690461C460B46024623F0004010436F
:10C3F00047D0270DC7F30A00C3F30A510290401A31
:10C40000019040286BDAC3F3130040F4801B0098BE
:10C41000924620B10023D2EB030A63EB0B0B019889
:10C420005946C0F14002504600F094F906460D46C8
:10C4300050465946019A00F09CF910EB0800614102
:10C44000002487EA115284EAE7731A4340D0009A25
:10C4500062B3019A012A4FEA075215DC001B61EB17
:10C4600002014FF0004202EA0752CDE90042001CEF
:10C4700041F5801132462B4600F09CF903B0BDE82F
:10C48000F08F40462146F9E7001B61EB0201001CDA
:10C4900041F5801300185B412018A2F5001747EB07
:10C4A000030140EAD570B6196D4111E06D084FEAFD
:10C4B000360645EAC0754FEA0752001B61EB0201E0
:10C4C000001C41F5801149084FEA30000019514124
:10C4D00032462B4603B0BDE8F04F00F05CB900983F
:10C4E000012240000023D0EB020263EBE0730098CE
:10C4F00021464FEAE074B8EB000061EB0401E9E784
:10C5000083F000435BE781F0004158E72DE9FE4FDF
:10C5100081EA030404F0004421F0004100944FF04C
:10C52000000B23F0004350EA01045ED052EA0304FA
:10C530005BD0C3F30A54C1F30A552C44A4F2F3347C
:10C540000194A0FB0254C1F3130141F48011C3F321
:10C55000130343F4801301FB024400FB034E840ADF
:10C56000970A44EA815447EA8357A4FB0768029577
:10C570008D0A05FB07854FEA932C04FB0C54270515
:10C58000029D4FEA065847EA1637B5EB08056EEBF1
:10C59000070C870E920E47EA811742EA8312A7FB27
:10C5A0000201B6EB0B0164EB00042B0D43EA0C33E4
:10C5B0005E1844EB1C50DA465146E7FB0201C5F316
:10C5C00013044FEA0B3343EA14534FEA0432019C3D
:10C5D00043EA0603A4F10C040294009CCDE900B4E4
:10C5E00000F0E8F803B0BDE8F08F00200146F9E75D
:10C5F0002DE9F04D81EA030404F0004B21F00045E1
:10C6000014464FF0000A23F0004150EA050220D002
:10C6100054EA01021DD0C5F30A570246C5F31303BD
:10C62000C1F31300C1F30A5640F4801543F480139C
:10C63000A7EB0608101BD64608F2FD3873EB050081
:10C6400002D308F1010801E092185B41B8F1000F34
:10C6500003DA00200146BDE8F08D00204FF4801180
:10C66000064684460EE0171B73EB050705D3121B25
:10C6700063EB050306434CEA010C49084FEA30001E
:10C6800092185B4150EA0107EDD152EA030012D043
:10C6900082EA040083EA0501084305D0101BAB4180
:10C6A00006D20122002306E000224FF0004302E000
:10C6B0006FF0010253101AEB06004CEB085110EB1F
:10C6C0000A0041EB0B01BDE8F04D00F064B8C1F386
:10C6D0000A52C1F3130140F2FF3341F480119A4230
:10C6E00002DA00200146704740F233439A42A2F238
:10C6F000334202DC5242FFF717BD00F02BB80000B6
:10C7000030B5041E71F1000404DB4FF000444042D8
:10C7100064EB0101141E73F1000405DB1C464FF0AD
:10C720000043524263EB0403994208BF904230BD7C
:10C73000064C074D06E0E06840F0010394E807006E
:10C7400098471034AC42F6D3FFF7D4FC146D0108BF
:10C75000346D0108202A04DB203A00FA02F100209F
:10C7600070479140C2F1200320FA03F3194390402F
:10C770007047202A06DBCB17203A41FA02F043EA41
:10C78000E07306E041FA02F3D040C2F1200291408A
:10C7900008431946704710B5141E73F1000408DAF7
:10C7A000401C41F1000192185B411A4301D120F075
:10C7B000010010BD2DE9F04D92469B4611B1B1FA32
:10C7C00081F202E0B0FA80F220329046FFF7C2FF19
:10C7D00004460F4640EA0A0041EA0B0153465A4616
:10C7E000084313D0114653EA010019D0C8F14002A2
:10C7F0005046FFF799FC05460E46504659464246BC
:10C80000FFF7A8FF084305D0012004E02046394681
:10C81000BDE8F08D0020054346EAE0762C4337431F
:10C820000A986305E40AA0EB08000022FD0A44EA26
:10C8300047540A3002D500200146E9E701051019E6
:10C840006941DDE9084500196941BDE8F04DA2E7FD
:10C8500070B5044600688168C943C9071BD1816867
:10C8600021F00101816001F031FE05460EE001F08A
:10C870002DFE401B022809D9A06A40F01000A062DA
:10C88000E06A40F00100E062012070BD206880682D
:10C89000C043C007EBD0002070BD10B50146406A10
:10C8A000826A12F0500F05D0006A026BBDE810409A
:10C8B00008461047816A41F4007181620168896805
:10C8C000C1F3424107290CD1017B51B9816A21F49E
:10C8D00080718162816AC90403D4816A41F00101D7
:10C8E000816201F033F910BD10B5406A816A41F0F0
:10C8F00040018162C16A41F00401C16201F028F97E
:10C9000010BD10B5406A01F022F910BDF8B500263F
:10C910000446009600688168C943C90727D081682A
:10C9200041F001018160134813490068B0FBF1F048
:10C9300000E0401E00900028FBD101F0C7FD054635
:10C9400010E001F0C3FD401B02280BD9A06A40F0A3
:10C950001000A062E06A40F00100E06284F8246008
:10C960000120F8BD20688068C043C007E9D10020DD
:10C97000F8BD00000C00002040420F00FEE7000060
:10C9800010B503F0D5FD0020064B024603EBC001B5
:10C9900003F83020401C4A7080B24A600328F5D367
:10C9A00010BD0000C00B0020032804D2034901EB96
:10C9B000C00040787047002070470000C00B002086
:10C9C0000749012803D0022805D0002070470868D5
:10C9D00040F3003002E0086840F38000401C7047DC
:10C9E000080C0140F0B500221F4E044603251346F3
:10C9F0001046FFF7E5FF06EBC20106F832004F785C
:10CA0000082F2CD2DFE807F00407121D232A262A5C
:10CA100018B3012006E038B1486820444860142863
:10CA20001DD90420487017E04B7015E038B14868F4
:10CA300020444860B0F57A7F11D90620F2E705203E
:10CA4000F0E708B14D700AE00720487007E028B110
:10CA50000220E7E710B14D704B6000E04B70521CB4
:10CA600092B2032AC4D3F0BDC00B00202DE9F043DD
:10CA7000504C00254FF4804704EB45063A46B6F883
:10CA8000C411708E00F08EFC6D1C7086C92DF3D31E
:10CA9000B4F8C011608E3A4600F0BFFC01254FF09B
:10CAA0000009002803D005DD84F8565304E06570C2
:10CAB000BDE8F08384F856934FF001034FF002066F
:10CAC00004EB43003A46018E408E00F0A6FC00289D
:10CAD00001DB014600E04142792901DD66700FE08B
:10CAE000002801DB014600E041422829F6DB00284E
:10CAF00005D094F8560301DD08B103E010B165706C
:10CB00006360D5E703F10103C82BD9D3002510F0EA
:10CB1000FF0F4FF0030843F6FF772B4624D0C821C0
:10CB2000581C00F074FC04EB4000C821468E1846E7
:10CB300000F06DFC04EB4000408E86420CD5C8210D
:10CB400018466D1CC4F8583300F061FC04EB40003B
:10CB5000408E381AC4F85C035B1CC82BDFD3012D50
:10CB600024D084F80180A3E7C821581C00F04FFCB2
:10CB700004EB4000C821468E184600F048FC04EB48
:10CB80004000408E301A00280CDD581CC8216D1C56
:10CB9000C4F8583300F03BFC04EB4000408E381AD8
:10CBA000C4F85C035B1CC82BDED3D8E784F8019083
:10CBB0007EE700008C0700200648002101704170CC
:10CBC00041600172C160C0F85813C0F85C13C0F82E
:10CBD000601370478C0700202DE9F05F524C534AD8
:10CBE000204600F11203018A94F808C000EB4101CD
:10CBF000C06800251288471C461E4FF448494FF470
:10CC0000C83A4FF4804BBCF1070F13D2DFE80CF0A9
:10CC100004142148545F8600217800290AD04FF47B
:10CC2000FA6103F045FEC4F80C90258201202072C1
:10CC300065706560BDE8F09F801C4FF4FA61E060AC
:10CC400003F036FEE0685045F4D10220C4F80C90A1
:10CC50000CE010F0FF0F0BD0E7604FF4FA61E068D2
:10CC600003F026FEE0685045E4D903202072E1E796
:10CC70004A82208A401C80B220821028EDD15A4678
:10CC80001021184600F0A0FBE168A1F54841090A0F
:10CC900004EB410148862582E068401CE060DCE747
:10CCA0004FF4FA613846E76003F002FEE068B0F541
:10CCB000D23FBFD10420D9E74FF4FA613046E66095
:10CCC00003F0F6FDE0685045B4D10520CEE710F042
:10CCD000FF0F0AD0E6604FF4FA61E06803F0E8FD68
:10CCE000E0684845A6D20620C0E74A82208A401C58
:10CCF00080B220821028EED15A461021184600F04A
:10CD000063FBE168A1F54841090A04EB4101A1F880
:10CD1000C4012582E068401EE060DCE7BDE8F05F0A
:10CD20000021084603F0C4BD8C0700201A00002033
:10CD30002DE9F84F9F4C207A062873D103F00AFEA4
:10CD4000FFF794FE6078A2464FF0000B00286AD1EE
:10CD500054469948CAF860B305F080FF964805F03C
:10CD600075FF94F85603DAF8584300284FF4484703
:10CD7000504679D04FF48049D0466DE0C821204616
:10CD800000F045FB03EB4000C821458E601C00F01D
:10CD90003EFB03EB40004A46408E294600F03DFB37
:10CDA0000546D3F85803A0421BD19846D3F85C63DC
:10CDB00014E0300290FBF5F000EB0420394600F05F
:10CDC00026FBADF80000012269467B4805F072FFA2
:10CDD000D8F86013491C761CC8F86013AE42E8DB33
:10CDE00039E0C830A0424FF00006984615D030E038
:10CDF000300290FBF5F000EB0420394600F007FB11
:10CE0000ADF80000012269466B4805F053FFD8F8E1
:10CE10006013491C761CC8F86013D8F85C03B04254
:10CE2000E6DC18E0C0E0AFE0300290FBF5F000EB8C
:10CE30000420394600F0EBFAADF800000122694603
:10CE40005D4805F037FFD8F86013491C761CC8F818
:10CE50006013AE42E8DB641CD8F858034346C9307F
:10CE6000A0428BDC81E0FFE7C83478E0C821601C79
:10CE700000F0CDFA03EB4000C821458E204600F0BB
:10CE8000C6FA03EB40004FF48042408E294600F082
:10CE9000C4FA0546D3F8580300F1C801A1421ED1D7
:10CEA000200200F580789946D3F85C6314E03002E4
:10CEB00090FBF5F1A8EB0100394600F0A8FAADF8B7
:10CEC0000000012269463C4805F0F4FED9F86013E1
:10CED000491C761CC9F86013AE42E8DB3EE0A04274
:10CEE0004FEA04204FF0000600F580701CD1814607
:10CEF000984614E0300290FBF5F1A9EB01003946A9
:10CF000000F085FAADF80000012269462A4805F0D4
:10CF1000D1FED8F86013491C761CC8F86013D8F805
:10CF20005C03B042E6DC19E08046994614E030022A
:10CF300090FBF5F1A8EB0100394600F068FAADF876
:10CF40000000012269461C4805F0B4FED9F86013C0
:10CF5000491C761CC9F86013AE42E8DB641EDAF89F
:10CF600058035346401EA04280DB134805F0A0FE44
:10CF7000DAF86013B1F5804F03D004218AF801106C
:10CF800002E09AF8010088B10C490B4881F804B01E
:10CF900005F064FE05F0B4FB0949012081F8580052
:10CFA0008AF808B08AF800B0BDE8F88F034901207C
:10CFB0000871EFE78C070020340000201A000020E1
:10CFC00028070020084B0028194618658A6A02DDE8
:10CFD00002F5807202E001DAA2F580720146104685
:10CFE000DA6403F065BC000028070020104A00B591
:10CFF000107810B9C82000F035F8507810B95020DA
:10D0000000F024F8907818B94FF4967000F036F8D4
:10D01000D07810B9FA2000F00DF80020506190612E
:10D02000D061106250629062D062106300BD000057
:10D03000E80600200449B0F5806F02D8086101209D
:10D0400000E00020C8707047E80600200449B0F5F1
:10D05000806F02D88860012000E00020487070478F
:10D06000E80600200449B0F5806F02D8486001202E
:10D0700000E0002008707047E80600200449B0F581
:10D08000806F02D8C860012000E0002088707047DF
:10D09000E8060020F0B42A4CA26A831AA4F14000EA
:10D0A0004361E569491BC9114FF448658161AB4291
:10D0B00002DC6D42AB4200DA45614FF47A6399427B
:10D0C00002DC5B42994200DA8361456841694D4365
:10D0D000C5618668836A06FB01318669C36803FB04
:10D0E0000613D911A3EBC113C0E90A31036A19442D
:10D0F000144B0162994202DC5B42994200DA0362FE
:10D10000016971434162036A2B441944891240F654
:10D11000B8330163994202DC5B42994200DA03634F
:10D12000016B2165002902DD02F5807202E001DA5F
:10D13000A2F58072E264F0BC104603F0B9BB0000B7
:10D140002807002000E02E000D4A00B5107810B925
:10D15000052000F02FF8507810B91E2000F01EF8BE
:10D16000907810B9002000F00DF800201061506197
:10D170009061D061106250629062D06200BD000088
:10D18000B80600200449B0F5806F02D8C8600120BD
:10D1900000E0002088707047B80600200449B0F510
:10D1A000806F02D88860012000E00020487070473E
:10D1B000B80600200449B0F5806F02D8486001200D
:10D1C00000E0002008707047B8060020F0B4244941
:10D1D00001F170030D694D61DA69801A4FF4801214
:10D1E0000861904202DC5242904200DA0A614E68C5
:10D1F000086946438E618C684A6A04FB0024A212C7
:10D20000A4EB8224C1E90942CC692244154CCA61CD
:10D21000A24202DC6442A24200DACC61CA68401B2E
:10D2200050430862CA6932441044801240F6B83252
:10D23000C862904202DC5242904200DACA62084858
:10D24000C96A70301965806A002902DD00F58070B6
:10D2500002E001DAA0F58070D864F0BC03F028BBCE
:10D26000B806002000E02E0082080348006802642F
:10D270008908C16370470000C8010020F0B5274B42
:10D2800000271C46596965682269A0EB010CE46817
:10D2900044F62066BCF1000F0FD01CDD00290EDB28
:10D2A0002A4492FBF6F4214492FBF6F406FB142286
:10D2B000C3E9042181421CDA2CE058612AE01019EC
:10D2C00090FBF6F2511890FBF6F206FB1200C3E950
:10D2D00004011DD51EE000290EDC521B92FBF6F462
:10D2E000214492FBF6F406FB1422C3E90421814297
:10D2F00010DCC3E904700DE0101B90FBF6F2114442
:10D3000090FBF6F206FB1200C3E90401002901DCE0
:10D310001F615F6158699861F0BD0000440B0020F7
:10D3200030B5094C41F27075207810B9284600F0EC
:10D3300027F8207A10B9284600F010F80020206164
:10D340006061A06130BD0000440B00200249002252
:10D35000C1E9042070470000440B0020002800DAD7
:10D360004042421E4EF65F2304499A4202D8C860EA
:10D37000012000E00020087270470000440B0020EC
:10D38000002800DA4042421E4EF65F2304499A42CA
:10D3900002D84860012000E00020087070470000BB
:10D3A000440B0020431A08444FEA600000D55B425A
:10D3B000B3EB620F04DDB0EB620F02DBA0EB6200A7
:10D3C000704700EB62007047F0B5B0F800C0012371
:10D3D0006546C2F1000E0FE030F81340A4EB0C07D5
:10D3E0002646B7EB620F00DDB41AB7EB6E0F00DA1A
:10D3F000B4185B1C25449BB28B42EDD395FBF1F036
:10D40000002800DA1044904200DD801AF0BD084484
:10D41000B0FBF1F201FB12007047401AB0EB620F53
:10D4200000DD801A5142B0EB610F00DA1044704702
:10D4300010B5044800F016FD0348C168491CC160DE
:10D4400010BD0000880200203010002010B50448F4
:10D4500000F008FD03480169491C016110BD00008E
:10D46000CC0200203010002030B590F8405001244C
:10D47000AC40C56B6C60046863604368102B036844
:10D4800003D099600068C26030BD9A600068C160D6
:10D4900030BD7047064810B50168090603D58021E4
:10D4A000016005F0B1F803484168491C416010BDB6
:10D4B000140401403010002070470000064900208D
:10D4C000C8610648016941F004010161016941F048
:10D4D000400101617047000020030020002002404D
:10D4E000064A0021D16106490A6942F002020A6136
:10D4F0004861086940F0400008617047200300203F
:10D5000000200240044B0022DA61044A136943F010
:10D5100001031361018070472003002000200240B6
:10D5200014490020CA68D306134A04D5D06940F0D4
:10D530000200D0611020CB685B0705D5D36943F0AA
:10D540000103D36140F00400CB69DB0707D0D36946
:10D5500043F00403D361CA6922F00102CA61A0F555
:10D560008072013A01D0C8607047C86920F001009C
:10D57000C8617047002002402003002070B50446B7
:10D5800000F0A4FF0546114E09E0601C07D024B14D
:10D5900000F09CFF401BA04201D9032070BDF06841
:10D5A000C007F2D1F068800601D52020F060F06855
:10D5B000C00605D4F069C00702D1F068400703D562
:10D5C000FFF7AEFF012070BD002070BD00200240BB
:10D5D00010B500221346002101EBC214491CC9B248
:10D5E00003558029F8D3521CD2B2042AF3D310BDBC
:10D5F0002DE9FF4F81B099460D46DDF838B014464D
:10D600005B1BABEB0402180000D55842002A01DB7B
:10D61000114600E0514209B24FF0FF37002B02DD06
:10D620004FF0010304E001DAB84602E04FF00003D6
:10D630009846002A02DD4FF0010702E001DB4FF0BF
:10D640000007884225DBC0EB410216B24A00081AE7
:10D6500012B240000FFA80FA00920DE0002E03DAB9
:10D660000098304406B204E006EB0A0006B2E01966
:10D67000C4B205EB0800C5B2224629460F9B0198AB
:10D6800000F031F848464D45E8D15A4601460F9B17
:10D6900023E0C1EB40024FEA400A401A400000B2CA
:10D6A00016B200900DE0002E03DA06EB0A0006B277
:10D6B00005E00098304406B205EB0800C5B2E01959
:10D6C000C4B2224629460F9B019800F00CF8584638
:10D6D0005C45E8D10F9B02464946019805B0BDE87C
:10D6E000F04FAFF3008030B580290FD2202A0DD241
:10D6F00002F007050124AC40D20801EBC211E4B2EC
:10D70000425C0BB1224300E0A243425430BD000012
:10D710002DE9FF4F81B000250E989146012806D0D3
:10D72000022808D003280BD004287BD10CE04FF04E
:10D73000060B082002E04FF0060B0C20804607E0A5
:10D740004FF0080B1020F9E74FF00C0B1820F5E70D
:10D75000B8F1080F02D94FF0080A00E0C246049859
:10D76000002600EB4000009052E00E98012806D001
:10D7700002280CD0032814D0042827D11BE02C4900
:10D78000009801EB4000284410F8C07C1EE02949B5
:10D79000009801EB80002844A0F5805090F8807E2E
:10D7A00014E02549049801EB00102844A0F58050AE
:10D7B00090F8007E0AE00498204900EBC00001EBDD
:10D7C00080002844A0F5805090F8807B002419E068
:10D7D0000120A040384207D009EB0400C2B20298F1
:10D7E0000F9B3044C1B208E00F9880F0010309EBB1
:10D7F0000400C2B202983044C1B20198FFF773FF2F
:10D80000641CE4B25445E3D36D1C761CADB2F6B291
:10D810005E45AAD309EB0A0000F0FF09A8EB0A0055
:10D8200000F0FF08B8F1000F92D105B0BDE8F08F0D
:10D830007A4A0108B44C0108285101081857010818
:10D840002DE9F04786B09046DDE90E46109D8946E9
:10D8500082460B2C00D90B2402AFA3B11A4611A1AA
:10D86000384605F0E3FF40B2401E0B2808D83B1BAA
:10D870004246CDE90065494650460B3300F05DF85D
:10D8800006B0BDE8F087002020213954401CC0B20A
:10D890000A28FAD330208DF8120000208DF81300EA
:10D8A0003B1BE6E72531312E6C6900002DE9FF4F67
:10D8B00081B017460E988A464FF0000900935FEA40
:10D8C0000008404636D0B8F1080F01D9082600E01C
:10D8D0000646002525E00F98002410F809B018E04E
:10D8E0000120A04010EA0B0F06D03819C2B20AEB93
:10D8F0000500C1B2109B07E0109880F001033819B1
:10D90000C2B20AEB0500C1B20198FFF7ECFE641C3D
:10D91000E4B2B442E4D309F101006D1C1FFA80F9AE
:10D92000EDB200988542D6D3B819C7B2A8EB06006D
:10D93000C0B2C4E705B0BDE8F08F2DE9FC431E4638
:10D94000DDE9095790460C46814614E0CDE90057C1
:10D95000424621464846FFF7DBFE012D06D0022D48
:10D9600004D0032D04D0042D04D10BE0A41D00E04D
:10D970000834E4B2761C3378A3F120005E28E5D9A0
:10D98000BDE8FC830C34F4E7F8B5002604460096A5
:10D9900090F82400012808D0012084F824002046B3
:10D9A000FEF756FF070002D04BE00220F8BDA06A48
:10D9B00020F4885040F00200A062022000F034FE03
:10D9C00022490968B1FBF0F0400000E0401E0090E1
:10D9D0000028FBD12046FEF799FF2068816841F0BE
:10D9E0000801816000F072FD054604E000F06EFD64
:10D9F000401B0A2811D8206880680007F6D42068E8
:10DA0000816841F00401816000F060FD05460EE090
:10DA100000F05CFD401B0A2809D9A06A20F0020032
:10DA200040F01000A06284F824600120F8BD206856
:10DA300080684007ECD4A06A20F0020040F00100AA
:10DA4000A06284F824603846F8BD00000C00002075
:10DA5000F8B50023009390F824201C46012A12D028
:10DA6000012280F824204A681F26072A0DD2056863
:10DA70006F6B521E02EB82029640B7430E689640CF
:10DA800037436F6319E00220F8BD05680D2A0AD2FA
:10DA90002F6BD21F02EB82029640B7430E6896406E
:10DAA00037432F6309E0EF6A0D3A02EB820296409A
:10DAB000B7430E6896403743EF620A680726056849
:10DAC0000A2A0AD3EF680A3A02EB42029640B743A9
:10DAD0008E6896403743EF6008E02F6902EB420200
:10DAE0009640B7438E68964037432F610A68102AE4
:10DAF00001D0112A20D1124D0268AA4217D195688F
:10DB00002D0219D4956845F400059560096810291F
:10DB100012D10C490C4A0968B1FBF2F101EB810109
:10DB2000490000E0491E00910029FBD104E0816A10
:10DB300041F020018162012380F824401846F8BD9D
:10DB4000002401400C00002040420F007047704745
:10DB5000704700002DE9F0414FF000060400354603
:10DB60007DD0A06A002728B9E76284F82470204697
:10DB700000F07EF82046FEF76BFEA16AC90600D4CD
:10DB800020B1A06A40F01000A06268E0A16A21F410
:10DB9000885141F00201A1626268E169237B0A4376
:10DBA00046EA43010A43A1684FF48076B14208D0A7
:10DBB000012906D0002194F814C0BCF1010F02D055
:10DBC0000AE03146F7E7F3B1A36A43F02003A3620A
:10DBD000E36A43F00103E3622368D3F804C02CF442
:10DBE000694C4CEA010CC3F804C021688B68DFF86B
:10DBF00074C003EA0C0313438B60A168B1420BD0DD
:10DC0000012909D00CE0DFF860C0A3690CEB4333B5
:10DC10000B4343F40061DFE7218A0D05A5F580156C
:10DC20002168CB6A23F470032B43CB622168896897
:10DC30000E4B1940914208D1E762A16A21F002011E
:10DC400041F00101A162BDE8F081A06A20F002006C
:10DC500040F01000A062E06A40F00100E0620120A4
:10DC6000F1E70000FDF7E1FF00E0FFFFFE0E1FFF00
:10DC7000704700002DE9F047894604463B4900689B
:10DC80003B4F0E1D9046884201D0B84207D1306804
:10DC900010F4702F03D001252846BDE8F08794F8D2
:10DCA000240001280CD0012084F824002046FEF72F
:10DCB0002DFE05004FF0000104D084F82410EBE79E
:10DCC0000220EAE7A06A40F60162904340F48070C7
:10DCD000A0622068B84218D1326812F4702F14D0B4
:10DCE000A06A40F48010A0623068400505D5A06AA3
:10DCF00020F4005040F48050A062A06AC0040AD50D
:10DD0000E06A20F00600E06206E0A26A22F48012D7
:10DD1000A2624068E9E7E16284F82410216A1548AC
:10DD20008862216A1448C862216A1448086321681D
:10DD30006FF0020008602068816841F480718160A2
:10DD4000216843464A464C31206A00F065F9206854
:10DD50008168C1F342410729816803D041F48011F1
:10DD6000816099E741F4A001FAE700000024014036
:10DD7000002801409BC8000803C90008E9C8000842
:10DD800010B590F821100022022905D004218163EA
:10DD900080F82020012010BD01680B6823F00E03DD
:10DDA0000B6001680B6823F001030B6090F84030B2
:10DDB000012404FA03F1C36B596080F8214080F814
:10DDC0002020104610BD000010B590F8211000244E
:10DDD000022903D00421816301243DE001680A681F
:10DDE00022F00E020A6001680A6822F001020A604D
:10DDF0001A4A0168914201D1012121E0174A1432E7
:10DE0000914201D110211BE0144A2832914201D1E4
:10DE1000891515E0114A3C32914201D189140FE075
:10DE20000E4A5032914202D14FF4803108E00B4A41
:10DE30006432914202D14FF4801101E04FF08071C1
:10DE4000064A083A5160012180F82110002180F82B
:10DE50002010416B01B18847204610BD08000240E8
:10DE6000806B70472DE9F05FC16B0B6801680A6831
:10DE7000046C4FF0040C0CFA04FC4A4DDFF828A1A6
:10DE80004A4E4B4FDFF82CB1DFF82CE11CEA030FB0
:10DE90002DD05FEA427C2AD50A68920603D40A682C
:10DEA00022F004020A600168A94201D1042119E0AC
:10DEB000514501D1402115E0B14202D14FF48061BA
:10DEC00010E0B94202D14FF480410BE0594502D134
:10DED0004FF4802106E0714502D14FF4800101E04A
:10DEE0004FF080612F4A083A5160C16A3BE04FF021
:10DEF000020808FA04F818EA030F4FF000094FF07F
:10DF0000010C35D05FEA827832D50A68920605D4D2
:10DF10000A6822F00A020A6080F821C00168A9425A
:10DF200001D1022119E0514501D1202115E0B14272
:10DF300002D14FF4007110E0B94202D14FF4005108
:10DF40000BE0594502D14FF4003106E0714502D192
:10DF50004FF4001101E04FF00071124A083A51608D
:10DF600080F82090816A00291AD0BDE8F05F084748
:10DF70000825A5401D4213D0120711D50A6822F0CA
:10DF80000E020A6090F84010C26B0CFA01F1516069
:10DF9000C0F838C080F821C080F82090016BE2E71B
:10DFA000BDE8F09F080002401C0002403000024023
:10DFB00044000240580002406C00024030B528B3D3
:10DFC00002C8134A14230A44B2FBF3F29200C2635C
:10DFD000104A8263022242770B6843F6F072934341
:10DFE000D0E900242243D0E902452C4322430469AE
:10DFF000224344692243846922431A430A60002170
:10E000004163012242770177084630BD012030BDCF
:10E01000F8FFFDBF0000024070B5044690F82000F4
:10E02000002501280CD0012084F8200094F82160FC
:10E030000020012E06D084F820000225284670BD5D
:10E04000022070BD022684F82160A0632068066863
:10E0500026F0010606602046FFF706FAE06A00286F
:10E060002068016802D041F00E0106E021F00401B1
:10E0700001602068016841F00A01016020680168C0
:10E0800041F001010160D9E770B5044600F01EFAC5
:10E090000546601C02D004480078044400F016FADB
:10E0A000401BA042FAD370BD000000202DE9F047CC
:10E0B000054626480F460126017E01290FD0012181
:10E0C000814601762868DFF888804CF250340228B7
:10E0D00008D0A2462046FFF751FAA8B131E002204D
:10E0E000BDE8F0872046FFF749FA08BB0120FFF79B
:10E0F000E5F92046FFF742FAD8F81010064621F05D
:10E100000401C8F810101CE04FF0FF303860AC6814
:10E1100011E02046FFF7E4F95046FFF72FFAD8F850
:10E120001010060021F00201C8F8101001D03C6068
:10E1300007E004F58064D5E9020100EB8120A042EC
:10E14000E7D8002189F818103046C9E720030020DD
:10E15000002002400348016941F080010161002074
:10E1600070470000002002402DE9F05F05461D4881
:10E1700088460024017E16461F46012909D0012148
:10E18000814601764CF2503A5046FFF7F7F918B144
:10E1900023E00220BDE8F09F012D02D0022D00D027
:10E1A0000425D346DFF840A015E022013046394669
:10E1B000FDF7BAFF81B208EB4400FFF7A3F9584618
:10E1C000FFF7DCF9DAF8102022F00102CAF810207B
:10E1D00018B9641CE4B2AC42E7D3002289F81820D5
:10E1E000D8E700002003002000200240064900205C
:10E1F0000A69120607D5054A4A60054A4A60096954
:10E20000090600D501207047002002402301674520
:10E21000AB89EFCD2DE9F0430022DFF8C0904FF03D
:10E220000F0C55E0012393400B404FD022F0030523
:10E230004D44AC689607370F0CFA07F606EA040857
:10E24000274CA04201D100240FE0264CA04201D16E
:10E2500001240AE0244CA04201D1022405E0234C11
:10E26000A04201D1032400E00424BC40444512D163
:10E27000AC68B443AC601E4C25689D432560241DEA
:10E2800025689D432560241D25689D432560241D28
:10E2900025689D432560FF2B01D8044601E000F16D
:10E2A00004044FEA820501D9A5F1200526680CFA7D
:10E2B00005F726EA07064FF0040707FA05F746EACE
:10E2C00007062660C46824EA0304C46002F1010260
:10E2D00031FA02F3A6D1BDE8F0830000000001404E
:10E2E00000080140000C01400010014000140140F2
:10E2F000000401402DE9F84FDFF8A491002409F152
:10E30000040A0AF1040B23464FF00F080BF1040E28
:10E31000BEE00127A7403A40BA4272D1DFF884C17B
:10E320004D68A5EB0C0665452BD00DDC032D34D0D4
:10E3300005DC35B3012D19D0022D2FD11BE0112D95
:10E3400016D0122D2AD119E0B6F5881F19D006DC97
:10E35000B6F5803F15D0B6F5801F1FD111E0B6F598
:10E36000001F0ED0B6F5041F18D10AE0CB6815E0E7
:10E37000CB681B1D12E0CB6808330FE0CB680C3371
:10E380000CE08B682BB1012B4FF0080303D04761E1
:10E3900004E0042302E0076100E00023FF2A01D823
:10E3A000064601E000F104064FEA840501D9A5F113
:10E3B0002005376808FA05FC27EA0C0703FA05F57B
:10E3C00047EA050737604D68ED0060D5364DAE6908
:10E3D00046F00106AE61AD6924F0030605F00105C3
:10E3E0000095324D7719BE68A5072D0F08FA05FC78
:10E3F00026EA0C06DFF8B8C0604503D14FF0000CE8
:10E4000017E044E0DFF8ACC0604502D14FF0010CEA
:10E410000FE0DFF8A4C0604502D14FF0020C08E025
:10E42000DFF898C0604502D14FF0030C01E04FF0D7
:10E43000040C0CFA05FC4CEA060CC7F808C04D6841
:10E44000D9F80060ED034D4601D5164300E0964330
:10E450002E604D68DAF80060AD03554601D51643CD
:10E4600000E096432E604D68DBF80060ED025D46EB
:10E4700001D5164300E096432E604D68DEF800603B
:10E48000AD02754601D5164300E096432E60641C2C
:10E490000A6832FA04F57FF43CAFBDE8F88F00005B
:10E4A0000004014000001110001002400000014073
:10E4B00000080140000C0140001001400014014020
:10E4C0008068084000D00120704700000148806843
:10E4D0007047000000000020024881680278114463
:10E4E0008160704700000020074810B5016841F0C6
:10E4F00010010160032000F085F8002000F006F80C
:10E5000000F024F8002010BD0020024070B50D4D31
:10E5100004464FF47A712878B1FBF0F00A49096893
:10E52000B1FBF0F000F0B5FD48B9102C07D2002285
:10E530002146501E00F046F800206C6070BD01209E
:10E5400070BD0000000000200C0000200C4808B541
:10E55000816941F001018161816901F0010100914E
:10E56000C16941F08051C161C069064900F0805025
:10E570000090486820F0E06040F00070486008BDFE
:10E58000001002400000014000280DDB00F01F02D7
:10E59000012191404009800000F1E020C0F8801185
:10E5A000BFF34F8FBFF36F8F7047002809DB00F078
:10E5B0001F02012191404009800000F1E020C0F8D5
:10E5C00000117047F0B40E4B1B68C3F30223C3F174
:10E5D0000704042C00D904241D1D072D01D200239B
:10E5E00000E0DB1E012606FA04F56D1E0D409D407D
:10E5F0009E40761E164045EA0601F0BC05F02AB999
:10E600000CED00E0064A00F0070110684FF6FF032A
:10E61000184040EA01200349084310607047000099
:10E620000CED00E00000FA0510B5014627A086B009
:10E630001DC88DE81D0029A0294C00680490002009
:10E64000012922D0022938D010291CD16168226802
:10E65000D20118D5C1F38342C9031DF8020009D5C0
:10E66000616804AAC1F34041515C1E4AB2FBF1F15A
:10E67000484301E01C4948436168490203D4400013
:10E680000321B0FBF1F006B010BD216AC1F30122F5
:10E69000012A03D1890701D5D003F4E7022A05D165
:10E6A000616A890702D549F64040ECE7032AEAD1BE
:10E6B00021688903E7D50D48E5E700F039F961687D
:10E6C000C1F38131491C4900DBE700000203040566
:10E6D000060708090A0B0C0D0E0F101001020000AE
:10E6E00000100240001BB70000093D00366E01001B
:10E6F0002DE9F84304460078344FC00752D0F8693A
:10E700000025C00008D4F86940F08050F861F8692D
:10E71000012500F0805000902D480168C90511D4F2
:10E720000168804641F480710160FFF7CFFE064624
:10E7300004E0FFF7CBFE801B642822D8D8F8000045
:10E74000C005F6D5386A10F4407020D0A18801F4D5
:10E75000407181421BD0386A1E49012220F440706A
:10E760000A6000220A603862C00710D0FFF7AEFED0
:10E77000064641F2883807E0FFF7A8FE811B4145B5
:10E7800002D90320BDE8F883386A8007F4D5386AD7
:10E79000616820F44070084338621DB1F86920F0C8
:10E7A0008050F8612078800705D57868A16820F44A
:10E7B0004040084378602078C00605D57868E16855
:10E7C00020F48000084378600020DBE7001002405E
:10E7D00000700040400442422DE9F0470D4604001D
:10E7E00067D0DFF81881D8F8000000F00700A842D1
:10E7F0000CD2D8F8001021F007012943C8F8001006
:10E80000D8F8000000F00700A84252D120683C4E22
:10E81000810712D5400703D5706840F4E06070604E
:10E820002078000703D5706840F46050706070680D
:10E83000A16820F0F000084370602078C00727D05E
:10E840006068012810D03168022810D0890700299B
:10E850002FDA716821F0030101437160FFF736FE82
:10E86000074641F288390CE031688903EFE78901F6
:10E87000EDE7FFF72BFEC11B494502D90320BDE898
:10E88000F0877068616800F00C00B0EB810FF0D188
:10E89000D8F80010404601F00701A9420BD90168E1
:10E8A00021F0070129430160006800F00700A84239
:10E8B00001D00120E3E72078400705D57068E168C2
:10E8C00020F4E060084370602078000706D5706887
:10E8D000216920F4605040EAC100706000F038F80F
:10E8E0007168084AC1F30311515CC84006490860C9
:10E8F00006480068FFF70AFE0020C0E7002002403B
:10E9000000100240604201080C00002004000020BA
:10E910000448054900684968044AC1F30221515C72
:10E92000C84070470C0000200010024070420108EF
:10E930000448054900684968044AC1F3C221515C92
:10E94000C84070470C0000200010024070420108CF
:10E9500013A085B00FC88DE80F0015A0154A0068F8
:10E960000490516801F00C00042804D0082804D059
:10E97000114805B070471148FBE7C1F38343C90351
:10E980001DF8030009D5516804AAC1F34041515C48
:10E990000A4A5043B0FBF1F0EBE709494843E8E786
:10E9A00002030405060708090A0B0C0D0E0F1010D0
:10E9B000010200000010024000127A00001BB700A4
:10E9C00000093D002DE9F84F04006FD02078BE4DBE
:10E9D000C00747D06868C0F38100012807D0686885
:10E9E000C0F38100022809D16868C00306D52868F1
:10E9F000800337D560680028E7D033E06068B0F561
:10EA0000803F0BD010B1B0F5A02F11D0286820F4B2
:10EA100080302860286820F4802002E0286840F4D4
:10EA200080302860606888B1FFF750FD064609E035
:10EA3000286840F480202860F0E7FFF747FD801B3E
:10EA4000642873D828688003F7D50BE0FFF73EFDF4
:10EA5000064604E0FFF73AFD801B6428F1D82868D9
:10EA60008003F7D42078DFF8648280074FF0010A32
:10EA70004FF0000939D5686810F00C0F07D06868AE
:10EA8000C0F38100022809D16868C00306D4286851
:10EA9000800714D52069012808D110E02069B0B1A1
:10EAA000C8F800A0FFF712FD064605E007E1FFF7F2
:10EAB0000DFD801B0228C4D828688007F7D5286878
:10EAC000616920F0F80040EAC10028600DE0C8F854
:10EAD0000090FFF7FBFC064604E0FFF7F7FC801B05
:10EAE000022823D828688007F7D4207800072CD57F
:10EAF0007748A169D9B1C0F800A0FFF7E7FC064646
:10EB000004E0FFF7E3FC801B02280FD8686A800747
:10EB1000F7D570484FF4FA510068B0FBF1F000905F
:10EB200000BF0098411E0091FAD20EE07CE0C0F8D0
:10EB30000090FFF7CBFC064604E0FFF7C7FC801B04
:10EB4000022871D8686A8007F7D4207840075BD51F
:10EB5000E8690027C00008D4E86940F08050E86107
:10EB6000E869012700F0805000905B480168C90502
:10EB700011D40168834641F480710160FFF7A6FC5F
:10EB8000064604E0FFF7A2FC801B64284CD8DBF8A3
:10EB90000000C005F6D5E06801280AD008B10528B4
:10EBA00013D0286A20F001002862286A20F00400AF
:10EBB00002E0286A40F001002862E06841F2883BE8
:10EBC00088B1FFF783FC064609E0286A40F004009C
:10EBD0002862EEE7FFF77AFC811B59455BD8286A6B
:10EBE0008007F7D50BE0FFF771FC064604E0FFF75E
:10EBF0006DFC811B59454ED8286A8007F7D41FB198
:10EC0000E86920F08050E861E069A8B36968C1F361
:10EC10008101022946D00228484606D0C8F8600083
:10EC2000FFF754FC044639E035E04746C8F8600079
:10EC3000FFF74CFC064604E0FFF748FC801B022867
:10EC400029D828688001F7D4206AB0F5803F05D123
:10EC50006868A16820F4003008436860D4E90801BE
:10EC60000843696821F4741108436860C7F860A01C
:10EC7000FFF72CFC044605E023E0FFF727FC001B10
:10EC8000022808D828688001F7D51AE0FFF71EFC93
:10EC9000001B022802D90320BDE8F88F28688001F4
:10ECA000F4D40EE00128F7D06868226A00F48031BD
:10ECB000914204D1616A00F47010884201D00120B1
:10ECC000EAE70020E8E700000010024000004242AE
:10ECD000800442420C0000200070004070B5040027
:10ECE00005D00025A56294F8510010B106E001207E
:10ECF00070BD84F85050204600F02EF8022084F8B1
:10ED000051002068016821F040010160D4E901014F
:10ED10000843D4E903121143084361690843218B76
:10ED200001F400710843E1690843216A0843A16ABC
:10ED3000084321680860A069042101EA10402168A5
:10ED400048602068C16921F40061C16165650120E6
:10ED500084F85100002070BD70472DE9F84F04463B
:10ED600090F8500000261D469046894601280ED096
:10ED70004FF0010B84F850B0FFF7A8FB074694F85A
:10ED800051004146B246012804D002268EE00220FE
:10ED9000BDE8F88FB9F1000F6FD0B8F1000F6CD05B
:10EDA000032084F85100C4F854A0C4F83090A4F8AB
:10EDB0003480A4F83680C4F838A0A4F83CA0A4F8A5
:10EDC0003EA0C4F844A0C4F840A0A068B0F5004F2D
:10EDD00004D12068026842F4804202602068026820
:10EDE000520603D4026842F040020260E068B0F5C7
:10EDF000006F606803D028B3012923D03FE008B139
:10EE000001291BD1206B21680088C86006E02068BA
:10EE10008168890709D5216B0988C160206B801C36
:10EE20002063E08E401EE08608E0FFF74FFBC01B2A
:10EE3000A84202D3681C01D02FE075B3E08E0028F1
:10EE4000E5D11FE0206B21680078087306E0206898
:10EE50008168890709D5216B09780173206B401CF3
:10EE60002063E08E401EE08609E0FFF72FFBC01B09
:10EE7000A84203D3681C02D00FE016E06DB1E08E0B
:10EE80000028E4D13A462946204603F05BFA08B14F
:10EE900020206065A06810B105E0032606E0206828
:10EEA000C16880680090606D00B1012684F851B09F
:10EEB00084F850A030466BE72DE9F84F044690F8EF
:10EEC000500001250A9E1F4692468B464FF00008CF
:10EED00001280ED0012084F85000FFF7F7FA814690
:10EEE00094F85100616801280CD0B1F5827F07D1F8
:10EEF00002E00220BDE8F88FA16809B9042801D01A
:10EF00000220B6E0BBF1000F27D0BAF1000F24D0E9
:10EF10001FB394F85100042802D0052084F8510052
:10EF200000206065C4F838A0E787A787C4F830B030
:10EF3000E786A7862064606420680168490603D4D8
:10EF4000016841F040010160E068B0F5006F606861
:10EF500005D0E8B3012F43D079E0012089E008B162
:10EF6000012F34D1206B21680088C860206B801C81
:10EF70002063E08E401EE08629E0206881688907D2
:10EF80000DD5E18E59B1012D09D1216B0988C160E0
:10EF9000206B801C2063E08E401EE08600252068E8
:10EFA0008168C9070BD0E18F49B1C068A16B0880A7
:10EFB000A06B801CA063E08F401EE0870125FFF757
:10EFC00085FAA0EB0900B04201D3701C50D100E0DB
:10EFD00006E0E08E0028D0D1E08F0028CDD13CE0C3
:10EFE000206B216800780873206B401C2063E08E42
:10EFF000401EE0862BE02068816889070DD5E18EF0
:10F0000059B1012D09D1216B09780173206B401C86
:10F010002063E08E401EE086002520688168C907D5
:10F020000BD0E18F49B1C068A16B0870A06B401C88
:10F03000A063E08F401EE0870125FFF747FAA0EBB1
:10F040000900B04202D3701C01D011E086B1E08EFD
:10F050000028D0D1E08F0028CDD14A463146204645
:10F0600003F070F938B120204FF00108606508E026
:10F070000320804605E0A06818B92068C168806850
:10F080000090012084F85100002084F85000404690
:10F0900030E710B5401EB0F1807F01D3012010BDD4
:10F0A0004FF0E02460610F21601704F0D3FB0020D3
:10F0B000A06107202061002010BD70B590F83C20B1
:10F0C000012A19D0012500F83C5F0222427050F855
:10F0D0003C2C5368946823F070060B6849683343EE
:10F0E00024F080042143536050F83C2C916045701B
:10F0F00000210170084670BD022070BD10B50400EB
:10F1000003D094F83D0010B107E0012010BD0020AD
:10F1100084F83C00204600F00CF8022084F83D0002
:10F12000211D206803F06EFE012084F83D000020C0
:10F1300010BD7047022180F83D1001688A6802F016
:10F140000702062A03D00A6842F001020A60012180
:10F1500080F83D10002070470168CA6842F0010243
:10F16000CA600068816801F00701062903D00168C0
:10F1700041F00101016000207047022180F83D103C
:10F1800001680A6A41F211131A4207D10A6A9B10F8
:10F190001A4203D10A6822F001020A60012180F8B4
:10F1A0003D10002070470168CA6822F00102CA6061
:10F1B0000068016A41F21112114207D1016A9210EE
:10F1C000114203D1016821F0010101600020704764
:10F1D0002DE9F041044690F83C000D4601283BD053
:10F1E000012684F83C60022084F83D009AB3042A8A
:10F1F00044D02068082A53D0D5E90027E968036A7B
:10F2000023F480530362D0F81CC0036A2CF4407CC2
:10F210004CEA07274FF6FF7C27F470470CEA0131D0
:10F220003943770323F4005307EA02321A43C161DA
:10F2300002622068C16921F44061C1612068C1692E
:10F24000AA6841EA0221C16184F83D60002084F887
:10F250003C00BDE8F08101E00220FAE7D5E90012A8
:10F26000EB68206803F018FF2068816921F00C0129
:10F27000816120688169AA6811430FE0D5E9001215
:10F28000EB68206803F046FF2068816921F4406143
:10F29000816120688169AA6841EA02218161D3E71E
:10F2A000D5E9002C2F7B016A21F480710162C169CC
:10F2B000036A21F0030141EA0C0121F0F00C390747
:10F2C0004FF400774CEA116123F4007307EA02223D
:10F2D0001A43C16102622068C16921F00C01C16159
:10F2E0002068C169AA681143ADE710B5040003D0D6
:10F2F00094F83D0010B107E0012010BD002084F813
:10F300003C00204600F00CF8022084F83D00211D4E
:10F31000206803F077FD012084F83D00002010BD37
:10F320007047000010B50268044631B1042908D0C6
:10F33000082922D00C2908D123E0D06840F002002F
:10F3400002E0D06840F00400D0600122206803F0A1
:10F350008FFD0E492068884203D1416C41F4004181
:10F3600041642068816801F00701062903D0016823
:10F3700041F001010160002010BDD06840F008009C
:10F38000E2E7D06840F01000DEE70000002C01400A
:10F3900010B50268044631B1042908D008292CD0E0
:10F3A0000C2908D12DE0D06820F0020002E0D068DE
:10F3B00020F00400D0600022206803F059FD1348BB
:10F3C00041F2111221689310814209D1086A10425A
:10F3D00006D1086A184203D1486C20F40040486402
:10F3E0002068016A114206D1016A194203D10168FD
:10F3F00021F001010160002010BDD06820F008005C
:10F40000D8E7D06820F01000D4E70000002C0140BD
:10F4100070B5044690F83C000D4601280DD0012639
:10F4200084F83C60022084F83D0042B1042A18D0E0
:10F43000082A2AD00C2A4DD139E0022070BD20685C
:10F4400003F02EFD2068816941F008018161206888
:10F45000816921F004018161206881692A69114371
:10F4600011E0206803F048FD2068816941F40061E3
:10F4700081612068816921F48061816120688169EE
:10F480002A6941EA0221816124E0206803F062FDDB
:10F490002068C16941F00801C1612068C16921F09B
:10F4A0000401C1612068C1692A69114311E0206823
:10F4B00003F07CFD2068C16941F40061C1612068EE
:10F4C000C16921F48061C1612068C1692A6941EA8A
:10F4D0000221C16184F83D60002084F83C0070BDC9
:10F4E00010B5040003D094F83D0010B107E00120EE
:10F4F00010BD002084F83C00204600F00CF80220EB
:10F5000084F83D00211D206803F07CFC012084F874
:10F510003D00002010BD704710B504460068012270
:10F5200003F0A6FC09492068884203D1416C41F4EC
:10F53000004141642068816801F00701062903D079
:10F54000016841F001010160002010BD002C014064
:10F550000246002041B1042909D008290AD00C290B
:10F5600001D11068006C70471068406B70471068DC
:10F57000806B70471068C06B704770B5044690F898
:10F580003C00012810D0012584F83C50022084F86A
:10F590003D00204603F02CFD002138B184F83D5099
:10F5A00084F83C10012070BD022070BD2068C26844
:10F5B00022F04002C2602068C26822F48042C26029
:10F5C00084F83D5084F83C10002070BD70B50446AE
:10F5D0000068C16821F49071C1602068416921F020
:10F5E00001014161206841694FF0000549060FD5CE
:10F5F000416921F040014161606B48B14563606B36
:10F60000FEF7BEFB20B1606BFEF72AFC202805D078
:10F61000E585202084F83A00002070BD1020E063CA
:10F62000032070BD7047000070B502680446106882
:10F63000D168536910F00F0F50D003F0010501F4A9
:10F64000907635435DD0C20705D0CA0503D5E26B7D
:10F6500042F00102E263420705D5DA0703D0E26B0C
:10F6600042F00202E263820705D5DA0703D0E26BBB
:10F6700042F00402E263020705D5DA0703D0E26B29
:10F6800042F00802E263E26B002A33D0800604D520
:10F69000880602D5204603F0D0FD20684069E16B62
:10F6A000C0F38010090700D428B3204603F0AEFD54
:10F6B0002068416949061AD5416921F0400141613C
:10F6C000606BA0B11B494163606BFEF77DFB0028B6
:10F6D00010D0606B416BBDE870400847830610D5C1
:10F6E0008B060ED52046BDE8704003F0A6BD20462F
:10F6F000FFF798FF70BD2046FFF794FF0020E063FE
:10F7000070BD030606D50B0604D52046BDE8704043
:10F7100003F03ABE4006F3D54806F1D5D16820463D
:10F7200021F04001D160202184F8391000F0B5F8B3
:10F7300070BD00004B31010870B5040004D094F88E
:10F740003900002510B106E0012070BD84F8385062
:10F75000204600F022F8242084F839002068C1688F
:10F7600021F40051C160204603F0B2FD2068016918
:10F7700021F4904101612068416921F02A01416131
:10F780002068C16841F40051C160E563202084F81D
:10F79000390084F83A00002070BD704737B5044640
:10F7A00090F83A0082B0134620283AD1039AAAB3BF
:10F7B000A3B394F83800012833D0012084F838002E
:10F7C000A262A3850025E563222084F83A00616BDC
:10F7D00015488862616B1548C862616B14480863FC
:10F7E000606B45632168606B091DFEF715FC20689E
:10F7F00001684168009184F83850C16841F4807113
:10F80000C1602068416941F001014161206841699E
:10F8100041F040014161002005B030BDFFE701200B
:10F82000FAE70220F8E70000A5310108E1310108FC
:10F830005B31010870B502F09FFE04002BD02068F8
:10F84000FFF7C4FEA0680068406804F58671C0F543
:10F85000807082B204F50370A4F80E230E460546AC
:10F86000FCF772FCB4F80E13D4F814034FF4807252
:10F870000844C4F8140331462068FFF78FFFB4F83A
:10F880000E13012907D9D4F81823002A03D02846DB
:10F89000BDE87040104770BD704710B502F06CFEB7
:10F8A000040010D0002103F0A1FC4FF4807204F595
:10F8B00086712068FFF772FFD4F81C03002802D07D
:10F8C000BDE81040004710BDFEE7000010B50C4930
:10F8D00040F271240A68C1E900020B69821AC3EB85
:10F8E0008313624303EB4212CB6813449A11A3EBD8
:10F8F0008213C1E90203C1E904208A6110BD00003E
:10F90000980B002004480021016041608160C160C3
:10F910000161416181617047980B0020024A1060CB
:10F920005060116190607047980B00202DE9FE4FE8
:10F930007D497D4A4FF00008C96A0291461A116A52
:10F940005069546AA1EB0003994601EB000A44F6A2
:10F95000206533D01146D068126A1318101A8346F6
:10F960000193CCB30846002E47688069009078DD8B
:10F97000002C74DDBC4273DC8A462046FCF77FFC19
:10F980000146FCF70CFC0099FCF709FCFCF780FC35
:10F990008642524652DDBC420FDA019890FBF5F1E7
:10F9A00090FBF5F3214405FB1300C2E90801B942BD
:10F9B00003DBC2F82080CAF82470A2E05A4AD0695A
:10F9C00041428C4209DB844207DCC2F82080C2F845
:10F9D0002480C2F8288094E01DE0002C0BDD93FB0E
:10F9E000F5F193FBF5F3214405FB1390C2E90801FF
:10F9F00000290BDD85E00DDA9AFBF5F39AFBF5F1B2
:10FA000005FB13A00919C2E908017AD4C2F82080C5
:10FA1000C2F8248075E0002E07DD93FBF5F24A6200
:10FA200093FBF5F205FB123006E090FBF5F24A621B
:10FA300090FBF5F205FB12B0086262E099FBF5F16C
:10FA400099FBF5F3214405FB1390C2E90801002955
:10FA500057DCC2F82080CAF8248052E001E042E07E
:10FA600035E0002C33DA7F42BC423CDB894620463D
:10FA7000FCF705FC0146FCF792FB0099FCF78FFBB5
:10FA8000FCF706FC714281424A4611DDBC4238DD7A
:10FA90009BFBF5F19BFBF5F3214405FB13B0C2E999
:10FAA0000801B9422DDCC2F82080C9F8247028E092
:10FAB0009AFBF5F39AFBF5F105FB13A00919C2E9CE
:10FAC00008011ED4C2F82080C9F8248019E099FBEF
:10FAD000F5F299FBF5F3224405FB1390C1E9080206
:10FAE000002A0ADD0DE09AFBF5F39AFBF5F205FB1F
:10FAF00013A01219C1E9080203D4C1F82080C1F88B
:10FB000024800948029BD0E90921114491FBF5F4B6
:10FB1000234491FBF5F405FB1411C0E90A13C0E975
:10FB20000C32BDE8FE8F0000F00A002070B50E4CCC
:10FB3000207810B90D4800F043F8207A0C4D10B928
:10FB4000284600F04FF8207C10B9284600F01CF839
:10FB50004FF44840E061002020626062A062E062F1
:10FB60002063606370BD0000F00A002000102700D1
:10FB700000204E00034A0023C2E90831C2E90A30DE
:10FB800070470000F00A002010B5002800DA40425B
:10FB9000094A411E094C91420AD86061FCF76FFB8B
:10FBA00001464FF07C50FCF72CFBA061012000E0E7
:10FBB0000020207410BD0000FF3F0D03F00A00205C
:10FBC000002800DA4042054B421E05499A4202D8FD
:10FBD0004860012000E0002008707047FF0F2700F8
:10FBE000F00A0020002800DA4042054B421E054979
:10FBF0009A4202D8C860012000E0002008727047D5
:10FC0000FF3F0D03F00A002010B500221146172017
:10FC1000FEF7D8FC002211461D20FEF7D3FC02217E
:10FC20000022C81EFEF7CEFC002203210E20FEF7A4
:10FC3000C9FC002203210F20FEF7C4FC002203218F
:10FC4000BDE810402520FEF7BDBC0000054901209D
:10FC50000870054844F620610068B0FBF1F0FFF73A
:10FC600018BA0000700000200C000020FEE7000021
:10FC700070B52549254B264C4A425D426642002814
:10FC800021DA884201DD002070BD984205DD104474
:10FC90004FF48371484300150FE0A04206DD28446D
:10FCA000C0EB0010C0EBC0001A4904E0304434211E
:10FCB000484318495A3901EB205016498239884285
:10FCC000E2DA084670BD9042DDDBA84205DA08445E
:10FCD0004FF483714843001510E0B04207DA18442E
:10FCE000C0EB0010C0EBC0004FF4967104E020445C
:10FCF000342148434FF4C37101EB20504FF4D771C6
:10FD00008842DEDC70BD00006079FEFFE029ECFF78
:10FD1000406EDEFFD4FEFFFF2DE9F047F649F74CB9
:10FD2000F74E0A786088002532B1B060F06030612B
:10FD300070610D70BDE8F087B168C6E90201401A34
:10FD4000B0F5C84F02DDA0F5484004E010F5C84FFB
:10FD500001DA00F5484031690844C6E90401401A57
:10FD6000F26940F271214843C2EB4212B16902EBE1
:10FD7000401001444811A1EB4011C6E90610FFF7FD
:10FD800077FF306231690144B162F06B411AF16270
:10FD900096F8581071B996F8461059B9217949B1B9
:10FDA00096F8471059B100F0BFF9F564356500F0D9
:10FDB00067FD30E000F0B8F9F56435651CE0317995
:10FDC000222920D00BDC102916D003DC01B3012935
:10FDD00021D114E020291BD021291CD10FE0312989
:10FDE0000DD004DC232913D0302914D110E032299E
:10FDF00009D033290FD10BE000F0ACFD0BE0306CE3
:10FE0000FDF7E4F907E0B6F94400FDF7DBF802E09E
:10FE1000316CFDF73FF9317970780124814229D0A6
:10FE20003071222819D00BDC102816D003DCA0B1C9
:10FE300001281FD111E020280FD021281AD10CE071
:10FE400031280ED004DC232807D0302812D106E058
:10FE5000322808D033280DD107E0002006E0012029
:10FE600004E0022002E0032000E0042002F056FC3F
:10FE700086F848403079222822DDA24F31280AD066
:10FE800004DC23281CD030281AD104E0322802D008
:10FE9000332815D108E002F033FC78683063B86885
:10FEA0007063B889308705E002F02AFC306B79680E
:10FEB00008443063B87B86F83A00F87B86F83B004C
:10FEC0009149706B884202DC4942884200DA7163D2
:10FED000B6F9380040F6B837B84201DD378703E09D
:10FEE0008A49884200DA318796F8460010B196F8C0
:10FEF0003A00C8B196F8470010B196F83B0098B1A7
:10FF000096F8480020B386F8485000F00DF900F04C
:10FF10001BF93079222825D009DC10282EDD202875
:10FF200017D021282AD119E086F84840EBE731287C
:10FF300014D004DC232807D030281FD109E0322850
:10FF400010D033281AD113E0F169B06A00F01AFA20
:10FF500014E0F169B06AFFF70DFE0FE0F06902F0FE
:10FF600049FE0BE0B6F8500000B2FDF7EFF905E0EE
:10FF7000F169B06AFFF7D2FCB06A30633079DFF81C
:10FF80009081DFF89091DFF890A1222821D00BDC3E
:10FF9000102826D003DCA0B1012822D114E02028AB
:10FFA0003DD021281DD143E0312841D004DC232855
:10FFB0002CD0302815D132E032280AD0332810D185
:10FFC0003CE000F01FF90CE000F034F909E0306487
:10FFD00007E0B6F93800FDF751F9BAF81800A6F8AD
:10FFE000440096F83A0086F8460096F83B0086F8FA
:10FFF0004700316D002900DA49423079474B4FF410
:020000040801F1
:10000000205C222822D0322820D02CE0D6E90C0116
:1000100000F018F94248016BF163406BD7E7306B91
:10002000FFF784FCD8F83010F163D8F83400CEE73D
:10003000706B02F077FDD9F81800C8E7306BFFF756
:1000400045FC38484169F1638069C0E759B1F269FC
:10005000002A00DA5242624505DA726D9A4213D3E1
:1000600086F8584008E0B94205D1F269002A00DA62
:1000700052426245F1DB7565B9420BD1F16D99428F
:1000800005D386F8604008E032327265F4E7323119
:10009000F16502E0F56586F86050102804D096F806
:1000A000581021B1042006E086F8615042E696F827
:1000B000601019B1032086F861003BE60221202878
:1000C00004D021280ED022280FD005E0326BF06B2F
:1000D000904204D1306C10B986F861402AE686F867
:1000E000611027E6726B306C03E0B6F94400B6F994
:1000F00038209042F3D1EFE7440000201A0000209E
:1001000028070020880300200010270048F4FFFF84
:10011000F00A0020280B0020440B002040420F0072
:10012000600B0020980B002006490020486288627E
:10013000C86130318862C862086234310860486042
:1001400070470000B806002002480021416580F891
:100150005810704728070020214A10B5107810B9B0
:10016000332000F03FF8907810B9012000F042F8F9
:100170001020107100209060D0601061506190617B
:10018000D06110629062D06210635063108782F871
:100190003A0082F83B00D0631064A2F8440082F871
:1001A000460082F8470082F84800D0641065506528
:1001B00082F85800D06582F8600082F86100FCF790
:1001C000C3FFFCF713FFFFF7B1FC02F0FDFCFDF7E6
:1001D000A7F800F0B9F8BDE81040FFF793BB0000A6
:1001E000280700200249487001200870704700006D
:1001F000280700200249C87001208870704700005D
:10020000280700200A4B98681A68C0EB0011C1EB60
:10021000C10102EB8101CA15A1EBC251C3E9001271
:1002200003F10C01CB6B1A44C1E90F2070470000A9
:100230001C070020024802490C318068086470479E
:100240001C0700202DE9F84F3D4F0D463946D7F8E1
:1002500018C0D1E908640022D1F82C8044F6206946
:10026000AC4502D1F96981421CD03A61C7E9065018
:10027000A0EB080092464000FCF701F80090281B14
:10028000FBF7FDFF83466019FBF7F9FF5946FBF7C3
:1002900086FF0099FBF7B5FFFBF7FAFFF86087F8D8
:1002A00014A02FE027493869884202DB0120387505
:1002B00003E032303861387D20B32148002C40689B
:1002C0000FD010DDA6EB0000494690FBF1F323446C
:1002D00090FBF9F409FB1400C7E90803002B0EDDBD
:1002E0001CE03A621AE03044494690FBF1F31B19D6
:1002F00090FBF9F409FB1400C7E908030ED43A6235
:100300007A620BE0F8684946304490FBF1F22244EF
:100310007A6290FBF9F209FB12003862D7E9091002
:1003200008444A4690FBF2F404EB080390FBF9F40E
:1003300009FB1400C7E90A03C7E90C31BDE8F88FCF
:10034000600B0020400D030010B50C4C207810B954
:100350000B4800F023F8207A10B9C82000F030F8DC
:100360000020E06020612075A061E0612062606291
:10037000A062E0622063606310BD0000600B00209B
:1003800000204E00044A002313611375C2E90831AE
:10039000C2E90A3070470000600B0020002800DA34
:1003A0004042054B421E05499A4202D8486001204E
:1003B00000E0002008707047FF3F0D03600B002035
:1003C000A0F132024CF21E3304499A4202D848810D
:1003D000012000E00020087270470000600B002040
:1003E0007047704710B5094B094848F6CC54198836
:1003F000018042686143C2EB421202EB11314909AC
:100400004160598841800021816010BDE8000020D2
:10041000B40B0020F0B589B00025364E0595069541
:10042000B06940F00400B061B06903A900F00400B5
:1004300007900320039004902F48FDF75BFF304C9A
:100440002E48C4E900058020C4E902504700C000DE
:10045000C4E904702020A0614FF44050E0612046C0
:10046000FDF7ACFD08B1FDF727F8254830380462E8
:100470006062009501950295B16941F40071B16126
:10048000B169012401F4007107911E498760016080
:1004900004730575022606614FF460214560C16151
:1004A000FDF758FB08B1FDF707F8CDE900541448F3
:1004B0000725694630380295FDF7CAFA08B1FCF7FE
:1004C000FBFF0F48CDE90046694630380295FDF73D
:1004D000BFFA08B1FCF7F0FF09483038FDF754FACD
:1004E000074902224431A1F17400FDF7C3FB09B0B2
:1004F000F0BD00000010024000080140080002406A
:10050000A400002000240140084808B5416941F0DA
:1005100001014161406900F0010000900E20FEF7EA
:1005200044F8BDE808400F20FEF73FB80010024035
:10053000F0B585B00025124C01950395A06940F0F7
:100540000800A061A0690F4F00F008000490A014FB
:1005500001260090694602963846FDF7CBFEA06959
:1005600040F00800A061A069694600F0080004900E
:1005700004208DE861003846FDF7BCFE05B0F0BDF3
:1005800000100240000C01402DE9F04786B02D48D4
:1005900000240294816941F004018161816901F0C4
:1005A00004010491816941F004018161816901F0D4
:1005B00004010491816941F004018161816901F0C4
:1005C00004010491816941F0040181618069202264
:1005D00000F0040004901C480260102707604FF0F0
:1005E0000808C0F800804FF00409C0F80090012509
:1005F000DFF854A0CDE900250326AAF1140A6946C4
:1006000050460396FDF776FE00970396CDE9015418
:1006100069465046FDF76EFECDF800800396CDE9A1
:10062000015469465046FDF765FECDF800900396EB
:10063000CDE9015469465046FDF75CFE06B0BDE8C1
:10064000F0870000001002401408014000B585B09A
:10065000002002900C48816941F0040181618069A9
:100660000A4900F0040004904FF400400860009034
:100670000120019002200390044869461038FDF7DC
:1006800039FE05B000BD0000001002401008014016
:1006900000B585B0002002900B48816941F010013F
:1006A000816180694FF4804100F010000490074898
:1006B0004161009101210191022103916946FDF7F9
:1006C00019FE05B000BD00000010024000100140FE
:1006D0002DE9F04385B0224C00250295A06940F039
:1006E0000400A061A0691F4E00F0040004902015D2
:1006F00030600127DFF86C90CDE900074FF0020869
:10070000A9F114096946CDF80C804846FDF7F2FDC1
:10071000A06940F00400A061A06900F0040004900A
:1007200060153060CDE90007CDE9025869464846BA
:10073000FDF7E0FDA06940F00400A061A06900F0B1
:1007400004000490A0153060CDE90007CDE90258FF
:1007500069464846FDF7CEFD05B0BDE8F0830000D0
:10076000001002401408014010B51720FDF70CFFDF
:1007700080210448FDF74EFDBDE8104001210248EC
:10078000FDF748BD00080140000C014030B585B0C0
:100790000024144D019402940394A86940F00400CD
:1007A000A861A869694600F0040004900120009047
:1007B0000D48FDF79FFDA86940F00400A861A869F5
:1007C000694600F004000490802000900748CDE9BD
:1007D00001040748FDF78EFD1720FDF7E6FE05B082
:1007E00030BD000000100240000C0140000031103C
:1007F0000008014010B580210448FDF70BFDBDE85D
:10080000104001210248FDF705BD0000000801402D
:10081000000C014010B586B00024124801940294E7
:100820000394816941F004018161816901F004014F
:100830000491816941F0040181618069694600F099
:1008400004000490012000900748FDF753FD80202C
:10085000CDE90004694605480294FDF74BFD06B05A
:1008600010BD000000100240000C014000080140D3
:1008700010B5FFF789FEBDE8104000F089B900000F
:10088000094900B500208880891D88800146FCF751
:10089000EBFC064820210160102101600821016065
:1008A0000421016000BD000020000020100801406C
:1008B00030B5254BC0F3090202F580709C1F234D13
:1008C0001A80C0F30900208035F91000608035F9E6
:1008D00012205A80002900DA494241F2DB3569438F
:1008E000C1F30B31002800DA40424843C0F30F3017
:1008F000A080002A00DA52424A43C2F30F319980A5
:10090000FCF7B2FC1249B4F9025020221024081F4F
:10091000002D02DD02600C6004E001DA0A6000E0F4
:1009200002600460B3F902404FF008034FF0040284
:10093000002C02DD03600A6030BD01DA0B6000E0CC
:100940000360026030BD00002600002078420108EC
:1009500014080140094900B500208880891D88805D
:100960000146FCF781FC064820210160102101604E
:10097000082101600421016000BD0000200000206A
:100980001408014010B501F07DFC06480549891D99
:100990004088A1F10A020880126832F810004880ED
:1009A00010BD00001400002070B500F01BF8FFF728
:1009B000E9FF0B4C0120A4F10A0120710020096815
:1009C0004FF6FF7203464FF4804531F810609642AF
:1009D00000D12371401C80B2A842F6D370BD000044
:1009E0001A000020054810B5002101804180FFF762
:1009F0002DFEBDE8104000F003B8000014000020F8
:100A00002DE9F04186B0314C00250295A06940F0F7
:100A10000800A061A06900F008000490A06940F0FF
:100A20000800A061A06900F008000490A06940F0EF
:100A30000800A061A069022600F0080004900820C8
:100A4000CDE90006DFF88880032769460397404612
:100A5000FDF750FC2020CDE900066946039740468B
:100A6000FDF748FC1027CDE9007569464046029520
:100A7000FDF740FC1749486840F0E06040F0010095
:100A80004860A06940F48050A061A069124900F458
:100A900080500490114801604FF48271C0E9011543
:100AA000E114C0E903160121416149028161C0E9F5
:100AB00007750A214562C0E90A51FEF70FF90028BF
:100AC00001D0FCF7F9FC06B0BDE8F081001002404F
:100AD000000C0140000001400030014018010020DE
:100AE0002DE9F04186B0264C00250295A06940F022
:100AF0000800A061A06900F008000490A06940F01F
:100B00000800A061A069022700F0080004904FF4DB
:100B10000050CDE90007DFF86C8003266946039694
:100B20004046FDF7E7FBB803CDE9000769460396A9
:100B30004046FDF7DFFBE06940F48040E061E0699A
:100B4000114900F480400490104801604FF4827114
:100B5000C0E90115C56061150561C0E905510821AD
:100B6000C0E907150A214562C0E90A51FEF7B6F847
:100B7000002801D0FCF7A0FC06B0BDE8F081000021
:100B800000100240000C01400038004070010020BD
:100B90002DE9F0418EB03B4C00250995A06940F04D
:100BA0000800A061A06900F008000D90A06940F065
:100BB0000800A061A069032700F008000D90E01470
:100BC00002260A97CDE90706DFF8BC8007A9404650
:100BD000FDF790FB20150A97CDE9070607A94046C7
:100BE000FDF788FB2949486820F4407040F0E06038
:100BF00040F4007048600B951C2168460C95FBF78B
:100C0000BCFAE06940F00100E061E069A10400F095
:100C100001000D901E48C0E9001540F2FF31C0E907
:100C2000025105618561FEF75BFC08B1FCF744FCED
:100C30000B950BA916480C95FEF73FFA08B1FCF787
:100C40003BFC6020CDE9000502950C226946104866
:100C50000495FEF7DDFB08B1FCF72EFC082269467F
:100C60000B48FEF7D5FB08B1FCF726FC0C21084821
:100C7000FEF752FC08210648FEF74EFC0EB0BDE818
:100C8000F081000000100240000C01400000014013
:100C9000C801002010B50448FEF76FFABDE8104007
:100CA00040210248FDF7B6BA0802002000080140C2
:100CB00030B58DB00024254D069407940894A8699A
:100CC00040F00400A861A86905A900F004000B9099
:100CD000402005901E48FDF70DFB14216846FBF7E8
:100CE0004CFA09940A94E86940F00200E861E86966
:100CF000184900F002000B901748C0E900144FF6A5
:100D0000FF71C0E9024104618461FEF7F7F908B19F
:100D1000FCF7D2FB072000905020CDE9010404200D
:100D2000049069460C48FEF728FC08B1FCF7C4FBA8
:100D3000099409A908480A94FEF7BFF908B1FCF71D
:100D4000BBFB0548FEF7F6F90DB030BD00100240C0
:100D500000080140000400400802002010B50848C7
:100D6000FEF721FA04210648FEF712FB0021044891
:100D7000FEF70EFBBDE8104040210248FDF74ABADD
:100D8000080200200008014070B590B000243D4DDD
:100D90000C940E94A86940F00400A861A86901268B
:100DA00000F004000F9040200B900BA90D963648E0
:100DB000FDF7A0FA142106A8FBF7DFF900940194CF
:100DC0000294039404940594E86940F00200E861F9
:100DD000E8692E4900F002000F902D48016047217C
:100DE000C0E901144FF6FF71C0E903148461FEF7F6
:100DF00085F908B1FCF760FB2548FEF776FA08B1E3
:100E0000FCF75AFB042006905020CDE9070406A900
:100E10001F480A94FEF7B1FB08B1FCF74DFB0094A4
:100E200069461B480194FEF748F908B1FCF744FBFA
:100E3000CDE902460494002202A915480594FEF764
:100E4000C7F908B1FCF738FB022002900390042296
:100E500002A90F48FEF7BCF908B1FCF72DFB1D20D5
:100E6000FDF7A3FB0A48FEF788F900210848FEF7C2
:100E700059FA04210648FEF755FA0548FEF76CF9C1
:100E800010B070BD00100240000801400004004096
:100E900008020020F0B41C481A494FF4C0640160F5
:100EA00000F1C8014A6842604FF480524E789510B4
:100EB00053000021062E22D2DFE806F00306080CBC
:100EC00010158160C16007E0056100E00461C0E9C0
:100ED00002210CE0C0E90213016108E000F10804FE
:100EE00084E82C0003E000F1080585E81C000C22D2
:100EF000C0E90521C161F0BC0348FEF71DBCF0BC90
:100F00007047000000380140480200202DE9F043FE
:100F1000404C85B0207810B9002000F095F8E078BA
:100F200018B94FF4E13000F07FF8A0786070A06845
:100F3000394E4FF000086060CDF80880B069444633
:100F400040F00800B061B06900F008000490B0699A
:100F500040F00800B061B069304D00F00800049026
:100F6000402000900220019003200390694628460B
:100F7000FDF7C0F9802701200097CDE901406946BF
:100F80002846FDF7B7F92649486840F0E06040F090
:100F9000040048601F4D2348883D4FF4405901C567
:100FA000102091C51B4845F8104988386C61C5E987
:100FB0000649FDF703F808B1FCF77EFA154C19480D
:100FC000C83C143025636C6204F18405C5E900084F
:100FD000C5E90287C5F810802020C5F81480C5E94E
:100FE00006092846FCF7EAFF08B1FCF765FA6563D5
:100FF0006C62B06940F48040B061B06900F4804038
:101000000490FFF747FF2520FDF7CFFA05B0BDE8B4
:10101000F08300001003002000100240000C01408B
:101020000000014044000240054BA0F5165205495E
:101030009A4202D88860012000E00020C870704702
:1010400050D0020010030020084960B101280AD0E6
:10105000022808D0032806D0042804D0052802D08E
:1010600000200870704788700120FAE71003002004
:101070002DE9FE4306464A48FCF7AAFA494F0124E7
:10108000387A07282BD2DFE800F004081A1E22263F
:101090002600009444A3019402E0009448A3019424
:1010A000002204213E48FCF748FC797803204A4D91
:1010B000052946D2DFE801F0171D383B3E000094B9
:1010C00046A30194ECE700944AA30194E8E7009456
:1010D0004EA30194E4E7009452A30194E0E7009446
:1010E00056A30194DCE7CDE90004082259A30021AE
:1010F00002E0697B5CA31FE02948FCF71EFC5F4807
:101100004FF008080079F8B100945DA31822162169
:1011100023480194FCF711FC00215D4ACDF80080C2
:10112000CDE90121082320E0697B5AA304E0697B13
:101130005DA301E0697B61A30822CDE900010021E4
:10114000DAE7697B62A3F7E7687B4DA3CDE900404E
:10115000182216211248FCF7F0FB4D4A687B083232
:10116000CDF80080CDE901200823182264210C4825
:10117000FCF79CFB0A4801F0B2F90120FBF714FCD4
:10118000062800D13C700220FBF70EFC062805D192
:10119000B068002802D0534988600474BDE8FE831B
:1011A000D80B00208C07002020202020202044691C
:1011B0007361626C65202020202020200000000048
:1011C0002020456E636F6465725F4175746F436183
:1011D0006C69202000000000D80D00202020466F00
:1011E00072776172645F4D6561737572652020204E
:1011F0000000000020202020526576657273655F34
:101200005265742020202020000000002020202093
:10121000526576657273655F4761702020202020DB
:10122000000000002020526576657273655F4D6591
:1012300061737572652020200000000020202020AE
:101240002020496E76616C696420202020202020B7
:1012500000000000202020204E6F5F4572726F72E8
:101260002020202000000000204572726F725F4134
:1012700076655F4469722020000000001A0000209B
:1012800063616C6962726174696F6E3A000000009C
:10129000846401084572726F725F4176655F436FC7
:1012A0006E74696E000000004572726F725F506864
:1012B0006173655374657020000000004572726FA1
:1012C000725F416E616C795F5175616E0000000064
:1012D0002020202020496E76616C69642020202027
:1012E0000000000048000020FEB507462C48FCF72F
:1012F0006FF9012400942BA3002221462848019471
:10130000FCF71BFB0B25CDE90054294E029400226B
:101310003D2123487368FCF793FA009425A3082223
:1013200001211F480194FCF708FBCDE90054029409
:1013300008223D211A48B368FCF782FA009420A3E2
:101340001022012116480194FCF7F7FACDE9005468
:10135000029410223D211248F368FCF771FA0094C0
:101360001AA3182201210E480194FCF7E6FACDE9F0
:101370000054029418223D2109483369FCF760FAB1
:10138000074801F0ACF80220FBF70EFB062805D158
:10139000B868002802D0104988600474FEBD0000BF
:1013A000D80B00206463655F6B702020203A00003A
:1013B000E80600206463655F6B692020203A000026
:1013C0006463655F6B762020203A00006463655F8C
:1013D0006B642020203A000048000020FEB507463C
:1013E0002348FCF7F5F80124009422A300222146AB
:1013F0001F480194FCF7A1FA0B25CDE90054204EBB
:10140000029400223D211A487368FCF719FA0094EF
:101410001CA30822012116480194FCF78EFACDE99D
:101420000054029408223D211148B368FCF708FAE1
:10143000009417A3102201210D480194FCF77DFAB6
:10144000CDE90054029410223D210948F368FCF7CD
:10145000F7F9074801F043F80220FBF7A5FA062840
:1014600005D1B868002802D00C4988600474FEBD1C
:10147000D80B00207069645F6B702020203A000058
:10148000B80600207069645F6B692020203A000074
:101490007069645F6B642020203A000048000020DF
:1014A000FEB505461B48FCF793F8012400941AA3E7
:1014B0000022214617480194FCF73FFA0B26CDE99C
:1014C0000064184F029400223D2112487B6BFCF708
:1014D000B7F9009414A3082201210E480194FCF7E7
:1014E0002CFACDE90064029408223D2109483B6DA5
:1014F000FCF7A6F9074800F0F2FF0220FBF754FAC8
:10150000062805D1A868002802D00A49886004741A
:10151000FEBD0000D80B0020676F616C5F637572C1
:10152000723A0000280700206F75745F637572724D
:10153000203A0000480000202DE9FE4F0027814698
:101540000774F748FCF744F8F6480826CDE9006030
:101550003346002201210297F148FCF7A7F9F14830
:1015600008230830CDE90060002270210297EC4882
:10157000FCF79CF9EC48ED4CDFF8A8B340782178F3
:10158000DFF8ACA30BF1100B884208D1CDE9006B5A
:101590000125082300227821E14802970AE0E1486A
:1015A0009AF80D5018300096CDE901050823002265
:1015B0007821DB48FCF77AF9A0462078012422281C
:1015C00078D00BDC10286FD003DCA0B101281CD12F
:1015D00013E020286AD0212817D169E0312871D082
:1015E00004DC232868D030280FD167E032286BD084
:1015F00033280AD16AE0CFA300E0D3A30022092157
:10160000C748CDE90045FCF798F9C74890F846006F
:1016100000285DD09AF80D005546CDE90040CFA3D3
:1016200018220021BE48FCF788F9BE49687B1831B2
:101630000096CDE90110082318221E21B848FCF7B6
:1016400035F9B94890F85800002851D09AF80D00A3
:101650005546CDE90040C3A318222D21B048FCF720
:101660006CF9B048697B18300096CDE90101082378
:1016700018224B21AA48FCF719F9BC480079002828
:1016800046D00094BAA318225A21A5480194FCF729
:1016900054F9CDE9006B082318227821A04802975D
:1016A0004BE007E000E001E0B3A3A7E7B7A3A5E79D
:1016B000BBA3A3E7BFA3A1E7C3A39FE7C7A39DE77E
:1016C00000E001E0CAA399E7CEA397E7D2A395E78C
:1016D0000094A2A31822002191480194FCF72DF94F
:1016E000CDE9006B082318221E218D480297A6E73A
:1016F00000949CA318222D2189480194FCF71DF920
:10170000CDE9006B082318224B2185480297B2E7E8
:101710009AF80D005546CDE9004095A318225A21AC
:101720007F48FCF70AF97F49687B18310096CDE9BC
:1017300001100823182278217948FCF7B7F87A4D70
:1017400003210B262879222851D007DC102812D03B
:1017500021DD20286AD021281DD12AE0312828D077
:1017600004DC23280FD0302815D15FE032283ED08A
:10177000332810D15AE0ADA306E010223D2168487D
:10178000FCF75EF807E0ADA3CDE9001408220021C4
:101790006348FCF7D2F8624800F0A1FE0120FBF795
:1017A00003F910264FF0200A4FF0210B05285BD0DB
:1017B00079E00094A5A30822012159480194FCF77F
:1017C000BCF8CDE90064029408223D2154486B6BBB
:1017D000FCF736F80094A0A3102201215048019490
:1017E000FCF7ABF8CDE900640294EB69C5E700941F
:1017F0009CA3082201214A480194FCF79EF8CDE9F8
:1018000000640294B5F9383008223D214448FCF7C1
:1018100017F8009496A31022012141480194FCF787
:101820008CF8CDE9006402942B6DA6E7009493A395
:10183000082201213A480194FCF77FF8CDE90064C1
:10184000029408223D2136482B6BFBF7F9FF0094E8
:101850008DA31022012132480194FCF76EF8CDE9E6
:1018600000640294AB6A88E798F80000222829D027
:101870000BDC102820D003DCD8B1012811D118E0EE
:1018800020280ED021280CD119E0312821D004DCE9
:1018900023281AD0302804D119E032281BD033284D
:1018A0001BD088F800600220FBF77EF8052818D0CE
:1018B000F7E088F80070F6E788F80040F3E788F86A
:1018C00000A0F0E788F800B0EDE7222006E0232032
:1018D00004E0302002E0312000E0322088F80000EF
:1018E000E1E798F80000222813D009DC102811D075
:1018F00001DC68B9DBE020280DD0212808D1DFE029
:10190000312809D009DC232808D0302800D1DDE0B7
:10191000C5E0D7E0CEE0D0E0DAE0BBE0D4E0000004
:10192000D80B00207464010828070020480000201C
:10193000D80D00204465627567204C6F636174693F
:101940006F6E202020000000446562756720537090
:10195000656564202020202020000000656E616203
:101960006C000000756E7374610000001A000020A6
:1019700063616C696200000053746F702020202046
:1019800020202020202020202000000044696769BA
:1019900074616C204C6F636174696F6E200000008D
:1019A0004469676974616C20537065656420202008
:1019B000200000004469676974616C20437572728D
:1019C000656E7420200000004469676974616C20B2
:1019D000547261636B2020202000000050574D207E
:1019E0004C6F636174696F6E20202020200000001E
:1019F00050574D2053706565642020202020202002
:101A00002000000050574D2043757272656E74209F
:101A1000202020202000000050554C5345204C6FC2
:101A2000636174696F6E2020200000002020202058
:101A3000202053544F502020202020002020202000
:101A40002020547261636B2020202000676F616C3E
:101A50005F737065653A00006D656E735F737065E6
:101A6000653A0000676F616C5F637572723A0000DF
:101A70006F75745F63757272203A0000676F616CF6
:101A80005F6C6F63613A00006D656E735F6C6F63CE
:101A9000613A0000332232281ED033281CD088F847
:101AA00000600120FAF780FF062818D01AE088F8B5
:101AB0000040F6E788F800A0F3E788F800B0F0E708
:101AC000222006E0232004E0302002E0312000E064
:101AD000322088F80000E4E788F80020E1E798F871
:101AE000000068700220FAF75FFF062806D1D9F8D7
:101AF0000800002802D0C8F808000474BDE8FE8F72
:101B00008369002B09D01A682AB1D3680BB11A4631
:101B1000FBE7D16000E01960886070470021016038
:101B200041608160704700002DE9FE4305468469ED
:101B3000007C01264FF0000900287DD085F8109028
:101B4000C4F8049020684F46011E06D06660C06845
:101B500018B16268521C6260F9E7E760276167614B
:101B60000020626819E0A36803EB020CACF1010CE1
:101B7000BCFBF2F802FB18CC844500D1E160834243
:101B800000D121615B1CB3FBF2FC02FB1C338342DE
:101B900000D16161C96811B1401C8242E3D8584844
:101BA000FBF716FDCDE900760022B9465F2311460A
:101BB0005348FBF71DFD1F27CDE900765F233A460A
:101BC00000214F48FBF714FD0023CDE900761A46AB
:101BD00019464B48FBF70CFDCDE9007603230022A4
:101BE00019464748FBF704FD6068022821D31E28E8
:101BF00001D3012102E01E21B1FBF0F1A368C1F184
:101C00001E025A43401EB2FBF0F7781800F0FF089E
:101C1000CDE900867F1C0123FAB219463848FBF74C
:101C2000E7FCCDE900860223FAB219463448FBF7F7
:101C3000DFFCE06848B100E02CE000960196036804
:101C4000012205212E48FBF778FE206940B10222CF
:101C5000CDE9002903680A2205212948FBF76DFE1A
:101C6000606938B10096019603681722052124485F
:101C7000FBF763FE20692021406888B1CDE90010A0
:101C800020230022029660211D48FBF70FFE1C480E
:101C900000F025FC0120FAF787FE052802D006E0B7
:101CA0001848EBE72E74A06838B1401EA0600220EF
:101CB000FAF77AFE052802D00BE06068F5E72E748B
:101CC000D4E90110401C884201D2A06001E0C4F8B0
:101CD00008900120FAF768FE0B4F062803D120690F
:101CE00008B1B86006740220FAF75EFE062804D137
:101CF000A868002801D0B8600674BDE8FE83000023
:101D0000D80B00209466010848000020FEB5054667
:101D10001B48FBF75DFC012400941AA30022214616
:101D200017480194FBF709FE0B26CDE90064184F14
:101D3000029400223B883D211148FBF781FD00946D
:101D400014A3082201210E480194FBF7F6FDCDE90A
:101D5000006402947B8808223D210948FBF770FD4E
:101D6000074800F0BCFB0220FAF71EFE062805D14A
:101D7000A868002802D00A4988600474FEBD0000EB
:101D8000D80B00207072696D6576616C203A000096
:101D90001A0000207265637469667920203A000099
:101DA000480000207CB505461D48FBF711FC0124C6
:101DB000002200941BA3114619480194FBF7BDFDB6
:101DC00000941EA30822002115480194FBF7B5FDDD
:101DD00000941DA30822362111480194FBF7ADFDA4
:101DE00000941CA3102200210D480194FBF7A5FDCF
:101DF00000941EA31822002109480194FBF79DFDC1
:101E0000074800F06CFB0220FAF7CEFD062805D14A
:101E1000A868002802D01B49886004747CBD0000BB
:101E2000D80B002048617264776172653A42617331
:101E300069632048312E312020000000536F667402
:101E4000776172653A00000046312E312E352053FD
:101E50000000000068747470733A2F2F676974680B
:101E600075622E636F6D2020200000002F756E6C50
:101E700069722F5844726976652020202020202026
:101E80002000000048000020FEB505461B48FBF777
:101E90009FFB012400941AA30022214617480194B5
:101EA000FBF74BFD0B26CDE90064184F029400228E
:101EB0003D2112483B6BFBF7C3FC009414A308229E
:101EC00001210E480194FBF738FDCDE9006402942E
:101ED00008223D210948BB6AFBF7B2FC074800F025
:101EE000FEFA0220FAF760FD062805D1A86800284E
:101EF00002D00A4988600474FEBD0000D80B00209F
:101F0000676F616C5F6C6F63613A000028070020A7
:101F10006D656E735F6C6F63613A0000480000206E
:101F2000FEB505461B48FBF753FB012400941AA39A
:101F30000022214617480194FBF7FFFC0B26CDE950
:101F40000064184F029400223B883D211148FBF7A2
:101F500077FC009414A3082201210E480194FBF79A
:101F6000ECFCCDE90064029408223D2109487B681D
:101F7000FBF766FC074800F0B2FA0220FAF714FDFE
:101F8000062805D1A868002802D00A498860047490
:101F9000FEBD0000D80B0020752061646320202066
:101FA000203A0000B40B00207520657374286D562C
:101FB000293A000048000020FEB505462148FBF7FD
:101FC00007FB0124009420A3002221461D48019410
:101FD000FBF7B3FC1F4E0820B17A39B11E4A00212D
:101FE000CDE90002082302910A4605E01A490823B8
:101FF00008318DE81300002277211248FBF756FCC8
:10200000009416A3082201210E480194FBF795FCC9
:102010000B20CDE900040294B6F90E3008223D21D0
:102020000848FBF70DFC074800F059FA0220FAF7C0
:10203000BBFC062805D1A868002802D00A498860A0
:102040000474FEBDD80B0020656E5F76616C696418
:10205000203A0000400300208464010873616D5F32
:10206000636F756E743A000048000020FEB50746A5
:102070003948FBF7ADFA0124009438A30022214629
:1020800035480194FBF759FC0B26CDE90064364D29
:10209000029400222B8C3D212F48FBF7D1FB0094AA
:1020A00032A3082201212C480194FBF746FCCDE91C
:1020B000006402946B8C08223D212748FBF7C0FB8B
:1020C00000942DA31022012123480194FBF735FC35
:1020D000CDE900640294AB8D10223D211E48FBF730
:1020E000AFFB95F82B001E2680B3A88D698CC0012C
:1020F000B0FBF1F085B27F2D00D37F251920CDE90B
:1021000000040246EBB200211348FBF771FACDE957
:102110000064EBB2E9B219220F48FBF769FA7F239A
:10212000E9B21E22CDE900640B48FBF761FA0A48C8
:1021300000F0D5F90220FAF737FC062805D1B86877
:10214000002802D00F4988600474FEBDFFE77F239A
:102150001E220021E6E70000D80B0020685F7769A7
:1021600064746820203A000058030020706572698A
:102170006F642020203A000076616C5F7769647498
:10218000683A000048000020FEB505461B48FBF7F2
:102190001FFA012400941AA3002221461748019433
:1021A000FBF7CBFB0B26CDE90064184F029400220D
:1021B000B7F938303D211148FBF742FB009414A3D6
:1021C000082201210D480194FBF7B7FBCDE900641B
:1021D000029408223D210948FB69FBF731FB0748BF
:1021E00000F07DF90220FAF7DFFB062805D1A86888
:1021F000002802D0094988600474FEBDD80B002075
:10220000676F616C5F737065653A00002807002096
:102210006D656E735F737065653A0000480000205D
:10222000002101604160C8218160704780690249D6
:102230004068486070470000480000202DE9F041E8
:1022400004461D4617460E460846DDF81880F9F785
:102250009FFF0F2801D8266001E006A02060002023
:10226000C4E90170E06001202074C4E90558BDE8AC
:10227000F081000056657279206C6F6E67206E6188
:102280006D652E002DE9FE4F4FF40340ADF80400BC
:10229000294E4FF404400024DFF8A090ADF806006A
:1022A0004FF40045671EA6F1040B4FF0010A35609C
:1022B000012302AA01A922480097FCF7FDFDD84698
:1022C000CBF8005035600DF10A020123111F1C48A4
:1022D0000097FCF7F1FDC8F80050BDF80800BDF804
:1022E0000A20C0B260F31F220021CC46A9F80020CA
:1022F0000846534603FA00F812EA080F01D0491CB9
:10230000C9B2401CC0B21028F4D3C80708D00020BE
:10231000641CE4B289F80500032CC8D3BDE8FE8F25
:102320008CF805A0C2F38D01ACF80210C2F3400195
:1023300089F80410F2E7000014080140140000209E
:102340001801002038B50B46009204460022802177
:1023500000F008F8002804D0606D40F020006065AF
:10236000032038BD2DE9F0411D4617460E460446B0
:10237000DDF8188008E0681C06D0FCF7A7F8A0EB91
:102380000800A8420BD255B12068806836EA0000E8
:1023900030D00020B842EED10020BDE8F0812068A6
:1023A000416821F0E00141606068B0F5827F0BD1A7
:1023B000A068B0F5004F02D0B0F5806F04D120685E
:1023C000016821F040010160A06AB0F5005F09D109
:1023D0002068016821F4005101602068016841F41F
:1023E00000510160012084F85100002084F8500061
:1023F0000320D2E70120CDE710B5FEF769F9FEF71B
:102400006FFB2E484FF4007404600A20FBF73CFE7B
:102410002A48001F04600A20FBF736FEAE2000F0B9
:102420007BF8002000F078F8102000F075F800200C
:1024300000F072F8B02000F06FF8812000F06CF826
:10244000FF2000F069F8A12000F066F8A62000F057
:1024500063F8A82000F060F81F2000F05DF8C820A5
:1024600000F05AF8D32000F057F8002000F054F89C
:10247000D52000F051F8802000F04EF8D92000F06F
:102480004BF81F2000F048F8DA2000F045F8002053
:1024900000F042F8DB2000F03FF8402000F03CF86C
:1024A0008D2000F039F8142000F036F8AF2000F04D
:1024B00033F8BDE81040012000F002B814080140D4
:1024C00010B520B1C02000F027F8A02003E0C820FC
:1024D00000F022F8A120BDE8104000F01DB870B552
:1024E0000646002505F1B000C0B200F015F8002046
:1024F00000F012F8102000F00FF8002404EBC510D3
:10250000305C00F021F8641CE4B2802CF6D36D1C22
:10251000EDB2042DE6D370BD31B509484FF48065A6
:102520000560841504604FF0FF33012269460548B9
:10253000FCF713FC0248001F0460056038BD000072
:102540001408014070010020F1B5084E4FF4806579
:102550003560AC10371F3C604FF0FF3301226946F5
:102560000348FCF7FAFB34603D60F8BD14080140F5
:10257000700100207047000003490968814201D1C1
:10258000014870470020704798030020134810B599
:1025900000684FF00003C20711484FF00104017AB0
:1025A00001D019B900E009B1837200E084720D49CD
:1025B000C28982810968C181891A09B20182C288EF
:1025C00051434161827A0648483012B141608373B9
:1025D00001E043608473C37310BD0000080C014028
:1025E000400300202404004010B5FEF7CFF8FEF7AA
:1025F0005FFBBDE8104000F007B810B5FEF7B4F877
:10260000BDE81040FEF746BB0B480C49427A0C4827
:1026100009684FEA016122B1002908DB03E001608B
:102620007047002903DA016821F01001F7E701681B
:1026300041F01001F3E700004003002008080140CA
:1026400000040040094B00B5187810B9102000F0C4
:1026500021F89878002808D100F014F8987800281C
:1026600003D15DF804EB00F003B800BD4003002087
:10267000034B00B55872FFF7C7FF0120987000BDEB
:102680004003002002490872012088707047000052
:10269000400300200D494FF4807202280DD0042819
:1026A0000BD0082809D0102807D0202805D04028B2
:1026B00003D0802801D0904205D18880B2FBF0F091
:1026C000C880012000E0002008707047400300200F
:1026D000044B00B5187810B9012000F005F898886F
:1026E000588000BD2C000020421E0449F62A02D862
:1026F0008880012000E00020087070472C00002036
:1027000005480078052806D2DFE800F00505050534
:102710000300FFF73BBF70478803002070B5114DE1
:1027200004462978A1421BD0052909D2DFE801F02F
:1027300008030303060000F039F801E0FFF75DFF2E
:102740002C70052C0CD2DFE804F00B030303070008
:10275000BDE8704000F014B8BDE87040FFF744BF1A
:1027600070BD000088030020044900B500200870F7
:10277000FFF768FF5DF804EB00F020B88803002045
:1027800010B5FEF747F8FEF7FFFA0748002120F8DA
:10279000201F4180017141718171C17101724172CB
:1027A0008172C17210BD00005803002010B5FEF701
:1027B00021F8BDE81040FEF7D1BA000010B5174C63
:1027C000207818B944F6206000F086F8607810B9D7
:1027D000002000F04DF8A07818B94FF4C84000F080
:1027E00063F8E07810B9002000F02AF8207910B9D9
:1027F0000B4800F061F8607910B9002000F028F86B
:10280000A07918B940F6B83000F040F8E079002817
:1028100003D1BDE8104000F005B810BD58030020FA
:102820000010270010B500F6B83341F27074034968
:102830000122A34200D8C883CA7110BD58030020EA
:10284000024908610120C870704700005803002049
:10285000054910B543184C0004490122A34200D891
:1028600088614A7110BD0000001027005803002045
:102870004CF250320449904202D84881012000E0D5
:1028800000204870704700005803002010B500F683
:10289000B83341F2707403490122A34200D88883FF
:1028A0008A7110BD580300200249C8600120887059
:1028B0007047000058030020054910B543184C002C
:1028C00004490122A34200D848610A7110BD0000EA
:1028D00000102700580300204CF250320449904267
:1028E00002D80881012000E0002008707047000035
:1028F000580300202DE9F05F874C20680169DFF85C
:102900001C92C94389074FF0010813D4C168C94319
:1029100089070FD46FF00201016184F81C80002147
:102920002046FCF715FE401CA9F8220099F8260065
:1029300089F8240020680169C943490713D4C16894
:10294000C94349070FD46FF00401016102202077C9
:1029500004217148FCF7FCFD401CA9F8200099F8FF
:10296000260089F8250020680169C943C9077CD180
:10297000C168C943C90778D1891E0161674F99F8B9
:10298000260099F82410DFF898A1002630378842F5
:102990001BD099F82510884217D0DAF800004006BD
:1029A00008D589F8278089F828604FF6FF70A9F8C4
:1029B000200005E089F8276089F82880A9F82060C0
:1029C00089F8296089F82A602CE0401C89F82600E3
:1029D00089F8276089F82860B9F808504FF69B708D
:1029E000854205D2B9F8201005F164008842E7D38A
:1029F000B9F80A40642C05D9B9F82010A4F1640094
:102A00008842DDDC89F8298099F82A0040B189F8EC
:102A10002B80B9F82000A84209D9A9F82C500DE064
:102A200089F82A8089F82B6087F80E8070E0A04230
:102A300002D2A9F82C4001E0A9F82C00387801282E
:102A400004D002281FD003283ED060E0D9E903213A
:102A50008846501AF9F713FC8246281BF9F70FFC39
:102A60000546B9F82C00001B00E052E0F9F707FC1E
:102A70002946F9F7C6FB5146F9F791FBF9F708FC2F
:102A80004044786043E0D9E905218846501AF9F7B7
:102A9000F6FB8346281BF9F7F2FB0546B9F82C0034
:102AA000001BF9F7ECFB2946F9F7ABFB5946F9F7A0
:102AB00076FBF9F7EDFB4044B860DAF80010090640
:102AC00025D44042B86022E0B9F91C20B9F91E8033
:102AD000A2EB0800F9F7D3FB8346281BF9F7CFFBDD
:102AE0000546B9F82C00001BF9F7C9FB2946F9F790
:102AF00088FB5946F9F753FBF9F7CAFB404400B28B
:102B0000B881DAF80010090601D44042B881BE73DA
:102B1000FE73BDE8F09F000008020020580300206B
:102B200008080140F0B5274B00271C465969656825
:102B30002269A0EB010CE46844F62066BCF1000FAA
:102B40000FD01CDD00290EDB2A4492FBF6F4214451
:102B500092FBF6F406FB1422C3E9042181421CDA3D
:102B60002CE058612AE0101990FBF6F2511890FB06
:102B7000F6F206FB1200C3E904011DD51EE0002990
:102B80000EDC521B92FBF6F4214492FBF6F406FB9A
:102B90001422C3E90421814210DCC3E904700DE072
:102BA000101B90FBF6F2114490FBF6F206FB1200AC
:102BB000C3E90401002901DC1F615F615869986164
:102BC000F0BD0000280B002030B5084C084D2078DF
:102BD00010B9284600F028F8207A10B9284600F0ED
:102BE00011F8002020616061A06130BD280B002039
:102BF00000204E0002490022C1E904207047000075
:102C0000280B002010B5002800DA4042044C431E77
:102C100004490122A34200D8C8600A7210BD000016
:102C2000FF3F0D03280B0020002800DA4042054B2F
:102C3000421E05499A4202D84860012000E0002067
:102C400008707047FF3F0D03280B002010B50446A5
:102C5000FBF7CCFA2068E06010BD00002DE9F043DE
:102C600085B00546FBF7C2FA002427464FF001085D
:102C70004FF0FF390D4E11E00097286804A900EBD2
:102C80008420CDE902086846FBF710FA4846FAF7B7
:102C900075FC306920F002003061641CA868A04215
:102CA000EAD805B0BDE8F043FBF754BA0020024073
:102CB000FBF750BA2DE9F04104460F46C068216881
:102CC0001646884215D3626800EB460011448842DC
:102CD0000FD800250BE037F8152000230120E1680C
:102CE000FBF742FA10B9E068801CE0606D1CB54249
:102CF000F1D3BDE8F081000010B5104C2078A8B1E8
:102D0000FDF740FEFDF76EFB0D48007810B1F9F7B6
:102D100063FF01E0FDF700F86078401CC0B260700E
:102D2000142805D30020607001F03AFAFBF7D4FBB9
:102D300004480168491C016010BD000070000020BB
:102D40008C0700203010002030B593B02821684651
:102D5000F9F713FA14210AA8F9F70FFA0024012150
:102D60000F9410940804CDE9001011941294029469
:102D700002250491CDE90750000109906846FBF750
:102D800021FE0F20CDE90A056802CDE90C400221A1
:102D90000AA80E94FBF720FDA80311900F950FA829
:102DA000FBF7A6FC13B030BD0D48016841F00101EE
:102DB000016041680B4A1140416001680A4A1140B4
:102DC0000160016821F480210160416821F4FE0165
:102DD00041604FF41F0181600449C00308607047DF
:102DE000001002400000FFF8FFFFF6FE08ED00E0D3
:102DF00010B5FFF77FFD02488168491C816010BD56
:102E000030100020F0B50268164C174D174E4FF0E9
:102E10008047A04205D0B84203D0A84201D0B042BA
:102E200003D122F070034A681A43A04205D0B84289
:102E300003D0A84201D0B04203D122F44073CA6843
:102E40001A434B6922F080021A4302608A68C26208
:102E50000A688262A04201D10969016301214161CE
:102E6000F0BD0000002C01400004004000080040BC
:102E700010B501F01F010123046A8B409C430462DA
:102E8000036A8A401343036210BD10B5846842EAA6
:102E9000032224F47F440A432243826010BD0000D1
:102EA00030B5026A22F001020262036A4268846954
:102EB00024F073050C682C4323F002058B682B4328
:102EC0000C4DA84206D123F00805CB6843EA050360
:102ED00023F0040307D14D6922F4407245EA02054C
:102EE0008A6942EA0502426084614968416303627B
:102EF00030BD0000002C014030B5026A22F0100203
:102F00000262026A436884690D6824F4E64444EA74
:102F100005248D6822F0200242EA05120C4DA842D9
:102F200006D1CD6822F0800242EA051222F040026A
:102F300007D14D6923F4406343EA85038D6943EA71
:102F400085034360846149688163026230BD00008B
:102F5000002C014030B5026A22F480720262036ADA
:102F60004268C46923F4007324F073050C682C4391
:102F70008D6843EA05230C4DA84206D1CD6823F4A1
:102F8000006343EA052323F4806307D14D6922F4EB
:102F9000405242EA05128D6942EA05124260C4615C
:102FA0004968C163036230BD002C014030B5026A3C
:102FB00022F480520262036A4268C4690D6824F4F4
:102FC000E64444EA05248D6823F4005343EA0533BC
:102FD000064DA84204D14D6922F4804242EA85128E
:102FE0004260C46149680164036230BD002C014045
:102FF00010B50268936823F070044B68234323F0F4
:1030000007040B68234393604A6812F00F0F30D116
:103010001211082A2DD2DFE802F02C2C2C2C0B21C7
:1030200027040B69D1E902210068FFF72EFF20E099
:103030000A68052A10D00268146A136A23F0010393
:10304000136202689369096923F0F00343EA0111EE
:103050009161006804620CE0012010BD0A69896872
:10306000006800F008F804E00A698968006800F068
:103070003FF8002010BD10B5046A036A23F0010375
:103080000362836923F0F00343EA021324F00A0287
:103090000A438361026210BD70B5046A24F0010422
:1030A00004628469056A0F4EB04208D0B0F1804FC7
:1030B00005D00D4EB04202D00C4EB04203D124F0E8
:1030C0000304144301E044F001041A0724F0F0045F
:1030D00044EA126225F00A0301F00A0119438261F1
:1030E000016270BD002C0140000400400008004057
:1030F00010B5036A23F0100303628469036A24F4A1
:10310000704444EA023223F0A00343EA01118261D1
:10311000016210BD30B5046A24F0100404628569B0
:10312000046A25F4407545EA022222F470454FF600
:10313000FF7202EA033224F0A0032A43A02404EA27
:10314000011119438261016230BD10B5406A00214E
:10315000C185C184FCF766FA10BD70B5446A206869
:10316000406994F83910C0F3C0100025212904D11A
:1031700018B1E584204600F057F82068406994F8BB
:103180003A10C0F38010222904D118B1E5852046F9
:1031900000F03CF8E06B40F01000E0632046FCF7E4
:1031A00041FA70BD10B50146406A09680968890690
:1031B00013D40021C1850168CA6822F48072CA60F4
:1031C00001684A6922F001024A6101684A6922F0F5
:1031D00040024A61202180F83A10FCF72BFB10BD19
:1031E00010B5406AFCF758FB10BD0000054A90423C
:1031F00004D105484FF4804209B102617047426131
:103200007047000098030020001001400168CA6860
:1032100022F49072CA6001684A6922F001024A6190
:10322000202180F83A1070470168CA6822F0C00275
:10323000CA60202180F83910704710B590F83A1014
:10324000222901D0022010BD8168B1F5805F11D024
:103250000169002901681FD0496801F07F03816A74
:103260004A1C82620B70C18D491E0904090CC1857C
:1032700018D02BE00269816A002A0268526805D0E2
:10328000D2B20A80816A491C8162ECE7C2F308026B
:103290000A80816A891CF7E74A68816A4B1C83624D
:1032A0000A70E0E70168CA6822F02002CA6001687B
:1032B000CA6822F48072CA6001684A6922F0010279
:1032C0004A61202180F83A10FCF7B4FA002010BDC2
:1032D0002DE9F041044600680169E26821F440519B
:1032E00011430161A16820690143606901432068BD
:1032F000C26841F20C639A430A43C2602068416984
:10330000A26921F44071114341611E49206864257E
:103310003226884202D1FBF70BFB01E0FBF7F8FAFB
:1033200000EBC00101EB001160686FF0180780002E
:10333000B1FBF0F2B2FBF5F2B1FBF0F37A4303EB31
:103340008202B1FBF0F306EB0212B2FBF5F2B3FB23
:10335000F5F302F0F00202EB0312B1FBF0F3B1FB64
:10336000F0F0B0FBF5F0784303EB800006EB0010C3
:10337000B0FBF5F0216800F00F0010448860BDE854
:10338000F08100000038014090F83910212901D067
:10339000022070478168B1F5805F016A0BD04A1C3A
:1033A0000262026809785160C18C491E0904090C47
:1033B000C1840ED017E009880268C1F3080151608A
:1033C00001690029016A02D0491C0162ECE7891CED
:1033D000FBE70168CA6822F08002CA600068C16821
:1033E00041F04001C16000207047000008B5094865
:1033F000FCF71AF9074800680168C90605D5016895
:10340000406800900348FCF715FA03484169491CDD
:10341000416108BD4802002030100020FEE7000096
:10342000144A10B5106051680023014451606429AA
:1034300004D95360117BB9B1002111739168014423
:103440009160B1F5FA7F04D99360517B71B100218D
:103450005173F9F7C7FA08498868002808D048600E
:103460004169BDE8104008470121E6E70121EFE787
:1034700010BD0000D80D0020480000203EB58A484D
:1034800000908A4B00228AA11C38FEF7D7FE86489E
:10349000FEF7C6FE84488A4B7C300090894A8AA198
:1034A0007038FEF7CBFE8048864A94300090844BFB
:1034B000803289A16C38FEF7C1FE7B48804BAC306E
:1034C0000090894A89A16838FEF7B8FE7648864A96
:1034D000C43000907A4B803288A16438FEF7AEFE8B
:1034E00071487C30FEF71AFB6F489430FEF716FBEC
:1034F0006D48AC30FEF712FB6B48C430FEF70EFB94
:10350000704A69480024814B803A81A1DC300094E4
:10351000FEF794FE6448824B824A83A1F8300094FF
:10352000FEF78CFE7F4A844B803284A1874800944A
:10353000FEF784FE8548864B864A87A11C3000949E
:10354000FEF77CFE834A8148874B803287A1383062
:103550000094FEF773FE7D48884B894A89A1543058
:103560000094FEF76BFE79488A4B00228AA17030E6
:103570000094FEF763FE75488B4B00228BA18C30C4
:103580000094FEF75BFE71488C4B00228CA1A830A2
:103590000094FEF753FE6D488D4B00228DA1C43080
:1035A0000094FEF74BFE69488E4B8F4A8FA1E030A6
:1035B0000094FEF743FE5B4A6448904B803A90A12A
:1035C000FC300094FEF73AFE60493839A1F1D00092
:1035D000FEF796FA34492831A1F11C00FEF790FA63
:1035E0005A491C39A1F1D000FEF78AFA5749A1F1D6
:1035F000EC00FEF785FA2C494431A1F13800FEF7C2
:103600007FFA52491C31A1F1EC00FEF779FA4F49DB
:103610003831A1F58470FEF773FA4C495431A1F5A5
:103620009270FEF76DFA20496031A1F15400FEF767
:1036300067FA46497031A1F59270FEF761FA434985
:103640008C31A1F5A070FEF75BFA4049A831A1F5D5
:10365000AE70FEF755FA3D49C431A1F5BC70FEF7D6
:103660004FFA3A49E031A1F5F470FEF749FA3749CB
:10367000FC31A1F50170FEF743FA3448644938384B
:1036800088606448F9F7A4FF0122634920208DE88F
:1036900007000022802311465E48FAF707F9BDE8CB
:1036A0003E405C48FEF71BBF040E00202D2201089F
:1036B000436172746F6F6E20202020202020200034
:1036C000291B0108946701084D61696E20436174EC
:1036D000616C6F672020200053656E736F7220202D
:1036E0002020202020202000946801085661726963
:1036F00061626C65202020202020200050617261D2
:103700006D65746572732020202020003915010832
:103710004465736B746F70202020202020202000CF
:10372000211F0108946A0108506F776572202020DC
:1037300020202020202020000D1D0108456E636FF1
:10374000646572202020202020202000180F0020F7
:10375000891E0108946B01084C6F636174696F6E78
:103760002020202020202000892101085370656539
:10377000642020202020202020202000A1140108E7
:10378000946C010843757272656E742020202020AD
:1037900020202000E9120108436F6E74726F6C20C4
:1037A0004443452020202000DD130108436F6E7440
:1037B000726F6C205049442020202000B91F01085E
:1037C0005369676E616C20436F756E742020200012
:1037D0006D2001085369676E616C2050574D2020A1
:1037E00020202000711001089469010843616C6970
:1037F00062726174696F6E2020202000A51D01088F
:10380000496E666F726D6174696F6E2020202000B2
:1038100048000020D80B00209464010802490148A8
:1038200088607047F80F0020480000200FB4084B54
:1038300010B504A902AA039800F0EEF8044602A904
:10384000002000F06CFC204610BC5DF814FB00006A
:103850001F4101080907090E002804DB00F1E020E0
:1038600080F80014704700F00F0000F1E02080F8AD
:10387000141D704702E008C8121F08C1002AFAD1BF
:1038800070477047002001E001C1121F002AFBD1E0
:10389000704700002DE9FF5F82B00021DDE90430B0
:1038A000020DDDF840B0034318D044F61050A2F2E8
:1038B000FF3242431514119801281FD0A5EB0B00CD
:1038C000401C5FEA000A4FF000064E4FDFF83891C7
:1038D000B046504615D5CAF1000413E011980124F2
:1038E0004AA3012801D16FEA0B010298119AC0E99D
:1038F0000031C0E9024206B0BDE8F09FCBF1000004
:10390000DFE704460021404A491842EB0450CDE964
:10391000001012E0E00707D032463B4640464946D9
:10392000F8F7F4FD8046894632463B461046194674
:10393000F8F7ECFD06460F466410002CEAD1DDE9ED
:103940000401DDE90023BAF1000F06DAF8F7DEFD25
:1039500042464B46F8F7DAFD05E0F8F749FE4246E5
:103960004B46F8F745FE04460E460022284BF8F772
:10397000C7FE03D84FF0FF30014607E00022254B79
:1039800020463146F8F71BFDF8F7A1FE102409E0A8
:10399000002C0ADB0A220023F8F7A9FC039B303233
:1039A0001A55641E50EA0102F2D1641C039AC4F154
:1039B00011031444119A012A03D0012208430DD1A6
:1039C0000AE0084304D000204FF0110B119072E779
:1039D000A3EB0B056D1E0DE05B4504DD4FF000020F
:1039E00005F1010504E003DA4FF00002A5F101053D
:1039F000002AECD002981199C0E90231C0E90045D3
:103A000079E70000000014400000F03F30000000A3
:103A10000000F0430000E03F2DE9FF4F95B09A46CB
:103A2000884606460025EEE1252877D10024274662
:103A3000F94A0121039400E0044316F8013F203BBA
:103A400001FA03F01042F7D130782A2811D06FF034
:103A50002F033078A0F13002092A16D8039A44F0D7
:103A6000020402EB820203EB42021044761C039034
:103A7000EFE758F8042B0392002A03DA504244F48B
:103A80000054039044F00204761C30782E2816D19E
:103A900016F8010F44F004042A280DD06FF02F020D
:103AA0003078A0F13003092B09D807EB870302EB2C
:103AB0004303C718761CF3E758F8047B761C30786C
:103AC0006C280FD006DC4C2817D068280DD06A2847
:103AD00014D104E0742810D07A280FD10DE044F4FA
:103AE00000140AE044F4801401E044F440147278B5
:103AF000824202D104F58014761C761C3078662848
:103B00000BD013DC582877D009DC002875D0452865
:103B1000F6D04628F4D047281AD193E118E063285C
:103B200035D0642879D0652812D18BE1702873D004
:103B300008DC6728F1D069286FD06E280DD06F2877
:103B400006D1ACE073282CD0752874D0782853D0D7
:103B50005246179990476D1C54E1C4F30250022855
:103B600009D003280DD0D8F8001004280DD00D601E
:103B700008F1040846E1D8F80010EA17C1E900523C
:103B8000F6E7D8F800100D80F2E70D70F0E718F8AE
:103B9000041B8DF8001000208DF80100EB46012079
:103BA00003E058F804BB4FF0FF3061074FF000010D
:103BB00002D40DE009F101018946B9420FDA8145CD
:103BC000F8DB1BF809100029F4D108E009F1010124
:103BD00089468142FADB1BF809100029F6D10398C7
:103BE0005346A0EB090721463846179A00F080FAA1
:103BF000284400EB090507E044E008E10DE01BF86C
:103C0000010B524617999047B9F10109F7D2534673
:103C100021463846179AF2E039E00A21C4F30252ED
:103C20004FF0000B0091022A06D058F8040BC11780
:103C3000032A09D00AE023E008F1070020F0070278
:103C4000F2E80201904605E000B2C117042A01D152
:103C500040B2C117002906DA0A460021404261EB52
:103C600002012D2202E0220504D52B228DF804202A
:103C7000012203E0E20701D02022F7E7914657E056
:103C80000A2100E010214FF0000B00910BE0102101
:103C90004FF0000B44F004040827009103E00820D3
:103CA0004FF0000B0090C4F30252022A05D058F8DE
:103CB000040B0021032A08D008E008F1070020F0D7
:103CC0000702F2E80201904603E080B2042A00D124
:103CD000C0B24FF0000922072AD53278702A07D0E7
:103CE000DDF800C08CF0100C5CEA0B0C05D00EE087
:103CF00040228DF80420012208E050EA010306D09A
:103D000030238DF804308DF8052002229146009B67
:103D100083F0080353EA0B030AD150EA010201D1F0
:103D2000620705D530228DF804204FF001097F1E6F
:103D30003278582A04D039A20C920CAA02920BE0D5
:103D40003BA2F9E75B46009AF8F7D1FA0C9B9B5C23
:103D5000029A521E0292137050EA0102F2D10298A6
:103D600004A9081A00F1200B600702D524F480345E
:103D700000E001275F4502DDA7EB0B0000E000201B
:103D800000EB0B01009003984944401A0390E003B4
:103D900006D453462146179A039800F0A9F9054422
:103DA000002706E001A85246C05D179990476D1C98
:103DB0007F1C4F45F6DBE0030CD553462146179A8E
:103DC000039800F095F9054404E030205246179915
:103DD00090476D1C0099481E00900029F5DC08E012
:103DE0000298029952460078491C0291179990470F
:103DF0006D1CBBF10001ABF1010BF1DC5BE100F0EC
:103E000065F90544761C307800287FF40DAE19B0B2
:103E10002846BDE8F08F0000092801003031323318
:103E200034353637383961626364656600000000F6
:103E300030313233343536373839414243444546E0
:103E400000000000600700D4062708F1070020F0FA
:103E50000700F0E80223804603F0004C5FEA0C0004
:103E600001D097A009E0200501D596A005E0E00764
:103E700001D095A001E0AFF24C001390307823F010
:103E8000004365280CD006DC452809D046281DD003
:103E900047287FD13BE0662818D067287AD136E0E2
:103EA0000021112F01DB112000E0781CCDE9000179
:103EB00004A90CA8FFF7EEFCDDE90D010C9A4FF008
:103EC000000B07F10109109200914EE04FF0004005
:103ED0000097CDE9011004A90CA8FFF7DBFCDDE990
:103EE0000D020C9B0F994FF0000B9146109300921E
:103EF00011B9791C00EB0109B7EB090003D4C0F13B
:103F0000FF3B07F10109A9EB0700019042E0012FF7
:103F100000DA01270021112F01DD112000E03846D1
:103F2000CDE9000104A90CA8FFF7B4FCDDE90D01FF
:103F30000C9A00914FF0000BB946109221070FD454
:103F4000009A4A4503DA914601E0A9F10109B9F165
:103F5000010F05DD109AA9F10101515C3029F4D05F
:103F6000B84202DA10F1040F03DA0121CDE90110A1
:103F700010E0002803DC8344A9EB000102E0411CAF
:103F8000494500DD8946A0EB0B00401C01904FF035
:103F900000400290200705D40198484502DB4FF00D
:103FA000FF30019000208DF84B0002980DF14B0777
:103FB000B0F1004F25D002200C902B200D900298DC
:103FC00000280CDA404202902D200D9007E00A21D3
:103FD0000298F8F776F93031029007F8011D0C9934
:103FE000481E0C900029F2DC02980028EFD1791EBF
:103FF0000D980870307800F0200040F0450007F878
:10400000020D11A8C01BC01D02901398007800B1CA
:10401000012000EB0901019801EBE07102980144D5
:104020000398401A401E0390E00306D453462146ED
:10403000179A039800F05CF805441398007818B1BB
:104040005246179990476D1CE00323D553462146ED
:10405000179A039800F04CF805441BE0BBF1000FE1
:1040600007DB0098584504DD1098179910F80B00ED
:1040700001E0179930205246904701980BF1010B4F
:10408000401E05F10105019004D12E2052461799DA
:1040900090476D1CB9F10001A9F10109DEDC05E0D2
:1040A00017F8010B5246179990476D1C0299481E4C
:1040B00002900029F4DC53462146179A03989EE6A5
:1040C0002D0000002B000000200000002DE9F04131
:1040D000044600251E461746880404D405E03946E8
:1040E0002020B0476D1C641EF9D52846BDE8F0813C
:1040F0002DE9F041044600251E469046C80301D52F
:10410000302700E02027880404D505E041463846E2
:10411000B0476D1C641EF9D52846BDE8F0810A68D9
:10412000531C0B6010707047F8F72AFCFEF764F917
:10413000FFF7A4F94FF47A70F9F7A6FFFCF7E4F95A
:10414000FCF768F9FCF730FCFCF792FBFEF70CFB80
:10415000F8F732FDFCF700F8FCF79AFAFCF7D6FE08
:10416000FEF7B6FAFBF750FDFBF770FD0421094896
:10417000FAF7A6F920B9084901200870FFF74EFBAD
:10418000064C6068401C606000F050F8F8F7D0FD05
:10419000F7E70000000C01408C07002054000020CD
:1041A0001A4A1068401C10609068401C0A21B0FB3D
:1041B000F1F301FB1301906011B9D168491CD16082
:1041C0001421B0FBF1F301FB130111B91169491C72
:1041D00011613221B0FBF1F301FB130111B95169F7
:1041E000491C51616421B0FBF1F301FB130111B9CA
:1041F0009169491C91614FF47A71B0FBF1F301FBB5
:104200001300002800D19060704700005400002087
:10421000054904480860FAF767F9FEF795FDFFF7CE
:1042200083FFFEE700C0000808ED00E010B50B4C6E
:10423000E06808B1401EE060206920B1401E2061A6
:104240001420FFF7EDF8606908B1401E6061A069B5
:10425000002801D0401EA06110BD000054000020C5
:104260000000000000000000010203040607080926
:1042700000000000010203040000190032004B009E
:1042800065007E009700B000C900E200FB00140149
:104290002D0146015F0178019101AA01C301DC01F2
:1042A000F5010E0227024002590272028B02A3029C
:1042B000BC02D502EE0206031F0338035003690354
:1042C00081039A03B203CB03E303FC0314042C041D
:1042D00044045D0475048D04A504BD04D504ED04F7
:1042E00005051D0534054C0564057C059305AB05E6
:1042F000C205DA05F10508061F0637064E066506F3
:104300007C069306AA06C106D706EE0605071B071C
:10431000320748075E0775078B07A107B707CD0768
:10432000E307F9070E0824083A084F0865087A08D9
:104330008F08A508BA08CF08E408F8080D09220973
:1043400037094B095F09740988099C09B009C40938
:10435000D809EC09FF09130A260A3A0A4D0A600A2D
:10436000730A860A990AAC0ABF0AD10AE40AF60A55
:10437000080B1B0B2D0B3E0B500B620B740B850BAC
:10438000970BA80BB90BCA0BDB0BEC0BFC0B0D0C42
:104390001E0C2E0C3E0C4E0C5E0C6E0C7E0C8E0C0D
:1043A0009D0CAC0CBC0CCB0CDA0CE90CF80C060D1B
:1043B000150D230D320D400D4E0D5C0D690D770D61
:1043C000850D920D9F0DAC0DB90DC60DD30DDF0DF2
:1043D000EC0DF80D040E100E1C0E280E340E3F0EC0
:1043E0004B0E560E610E6C0E770E810E8C0E960ED5
:1043F000A10EAB0EB50EBF0EC80ED20EDB0EE40E34
:10440000EE0EF70EFF0E080F110F190F210F290FD7
:10441000310F390F410F480F500F570F5E0F650FC7
:104420006C0F720F790F7F0F850F8B0F910F970F06
:104430009C0FA20FA70FAC0FB10FB60FBB0FBF0F92
:10444000C40FC80FCC0FD00FD40FD70FDB0FDE0F68
:10445000E10FE40FE70FEA0FEC0FEF0FF10FF30F8F
:10446000F50FF70FF80FFA0FFB0FFC0FFD0FFE0F04
:10447000FF0FFF0F00100010001000100010FF0FC2
:10448000FF0FFE0FFD0FFC0FFB0FFA0FF80FF70FDA
:10449000F50FF30FF10FEF0FEC0FEA0FE70FE40F3B
:1044A000E10FDE0FDB0FD70FD40FD00FCC0FC80FEB
:1044B000C40FBF0FBB0FB60FB10FAC0FA70FA20FEA
:1044C0009C0F970F910F8B0F850F7F0F790F720F36
:1044D0006C0F650F5E0F570F500F480F410F390FCC
:1044E000310F290F210F190F110F080FFF0EF70EB3
:1044F000EE0EE40EDB0ED20EC80EBF0EB50EAB0EE6
:10450000A10E960E8C0E810E770E6C0E610E560E5D
:104510004B0E3F0E340E280E1C0E100E040EF80D1E
:10452000EC0DDF0DD30DC60DB90DAC0D9F0D920D29
:10453000850D770D690D5C0D4E0D400D320D230D6F
:10454000150D060DF80CE90CDA0CCB0CBC0CAC0C00
:104550009D0C8E0C7E0C6E0C5E0C4E0C3E0C2E0CCC
:104560001E0C0D0CFC0BEC0BDB0BCA0BB90BA80BD8
:10457000970B850B740B620B500B3E0B2D0B1B0B1B
:10458000080BF60AE40AD10ABF0AAC0A990A860A9D
:10459000730A600A4D0A3A0A260A130AFF09EC094F
:1045A000D809C409B0099C09880974095F094B0935
:1045B000370922090D09F808E408CF08BA08A50848
:1045C0008F087A0865084F083A0824080E08F9078A
:1045D000E307CD07B707A1078B0775075E074807F5
:1045E00032071B070507EE06D706C106AA06930683
:1045F0007C0665064E0637061F060806F105DA0535
:10460000C205AB0593057C0564054C0534051D0505
:104610000505ED04D504BD04A5048D0475045D04F1
:1046200044042C041404FC03E303CB03B2039A03F5
:1046300081036903500338031F030603EE02D5020A
:10464000BC02A3028B0272025902400227020E0230
:10465000F501DC01C301AA01910178015F01460166
:104660002D011401FB00E200C900B00097007E009C
:1046700065004B00320019000000E7FFCEFFB5FFD8
:104680009BFF82FF69FF50FF37FF1EFF05FFECFE17
:10469000D3FEBAFEA1FE88FE6FFE56FE3DFE24FE4E
:1046A0000BFEF2FDD9FDC0FDA7FD8EFD75FD5DFD84
:1046B00044FD2BFD12FDFAFCE1FCC8FCB0FC97FCAC
:1046C0007FFC66FC4EFC35FC1DFC04FCECFBD4FBC3
:1046D000BCFBA3FB8BFB73FB5BFB43FB2BFB13FBC9
:1046E000FBFAE3FACCFAB4FA9CFA84FA6DFA55FABA
:1046F0003EFA26FA0FFAF8F9E1F9C9F9B2F99BF98D
:1047000084F96DF956F93FF929F912F9FBF8E5F842
:10471000CEF8B8F8A2F88BF875F85FF849F833F8D6
:104720001DF807F8F2F7DCF7C6F7B1F79BF786F745
:1047300071F75BF746F731F71CF708F7F3F6DEF68B
:10474000C9F6B5F6A1F68CF678F664F650F63CF6A6
:1047500028F614F601F6EDF5DAF5C6F5B3F5A0F591
:104760008DF57AF567F554F541F52FF51CF50AF549
:10477000F8F4E5F4D3F4C2F4B0F49EF48CF47BF4D2
:1047800069F458F447F436F425F414F404F4F3F31C
:10479000E2F3D2F3C2F3B2F3A2F392F382F372F331
:1047A00063F354F344F335F326F317F308F3FAF203
:1047B000EBF2DDF2CEF2C0F2B2F2A4F297F289F29D
:1047C0007BF26EF261F254F247F23AF22DF221F2EC
:1047D00014F208F2FCF1F0F1E4F1D8F1CCF1C1F1FE
:1047E000B5F1AAF19FF194F189F17FF174F16AF1C9
:1047F0005FF155F14BF141F138F12EF125F11CF14A
:1048000012F109F101F1F8F0EFF0E7F0DFF0D7F085
:10481000CFF0C7F0BFF0B8F0B0F0A9F0A2F09BF075
:1048200094F08EF087F081F07BF075F06FF069F016
:1048300064F05EF059F054F04FF04AF045F041F06A
:104840003CF038F034F030F02CF029F025F022F074
:104850001FF01CF019F016F014F011F00FF00DF02D
:104860000BF009F008F006F005F004F003F002F098
:1048700001F001F000F000F000F000F000F001F0B5
:1048800001F002F003F004F005F006F008F009F082
:104890000BF00DF00FF011F014F016F019F01CF001
:1048A0001FF022F025F029F02CF030F034F038F031
:1048B0003CF041F045F04AF04FF054F059F05EF012
:1048C00064F069F06FF075F07BF081F087F08EF0A6
:1048D00094F09BF0A2F0A9F0B0F0B8F0BFF0C7F0F0
:1048E000CFF0D7F0DFF0E7F0EFF0F8F001F109F1E9
:1048F00012F11CF125F12EF138F141F14BF155F196
:104900005FF16AF174F17FF189F194F19FF1AAF1FD
:10491000B5F1C1F1CCF1D8F1E4F1F0F1FCF108F21C
:1049200014F221F22DF23AF247F254F261F26EF2F1
:104930007BF289F297F2A4F2B2F2C0F2CEF2DDF28B
:10494000EBF2FAF208F317F326F335F344F354F3DA
:1049500063F372F382F392F3A2F3B2F3C2F3D2F3EE
:10496000E2F3F3F304F414F425F436F447F458F4C2
:1049700069F47BF48CF49EF4B0F4C2F4D3F4E5F45F
:10498000F8F40AF51CF52FF541F554F567F57AF5BD
:104990008DF5A0F5B3F5C6F5DAF5EDF501F614F6EB
:1049A00028F63CF650F664F678F68CF6A1F6B5F6E5
:1049B000C9F6DEF6F3F608F71CF731F746F75BF7B2
:1049C00071F786F79BF7B1F7C6F7DCF7F2F707F850
:1049D0001DF833F849F85FF875F88BF8A2F8B8F8C5
:1049E000CEF8E5F8FBF812F929F93FF956F96DF917
:1049F00084F99BF9B2F9C9F9E1F9F8F90FFA26FA45
:104A00003EFA55FA6DFA84FA9CFAB4FACCFAE3FA53
:104A1000FBFA13FB2BFB43FB5BFB73FB8BFBA3FB47
:104A2000BCFBD4FBECFB04FC1DFC35FC4EFC66FC23
:104A30007FFC97FCB0FCC8FCE1FCFAFC12FD2BFDEE
:104A400044FD5DFD75FD8EFDA7FDC0FDD9FDF2FDA8
:104A50000BFE24FE3DFE56FE6FFE88FEA1FEBAFE52
:104A6000D3FEECFE05FF1EFF37FF50FF69FF82FFFC
:104A70009BFFB5FFCEFFE7FF000000000000000035
:104A80000000002F000000000700070000147F1442
:104A90007F1400242A7F2A12006264081323003640
:104AA0004955225000000503000000001C2241006F
:104AB000000041221C000014083E08140008083EB3
:104AC0000808000000A060000008080808080000AE
:104AD00060600000002010080402003E5149453E7D
:104AE0000000427F4000004261514946002141459B
:104AF0004B31001814127F10002745454539003C02
:104B00004A494930000171090503003649494936CF
:104B100000064949291E00003636000000005636BE
:104B200000000008142241000014141414140000A2
:104B30004122140800020151090600324959513E30
:104B4000007C1211127C007F49494936003E4141E8
:104B50004122007F4141221C007F49494941007F99
:104B600009090901003E4149497A007F0808087F88
:104B70000000417F4100002040413F01007F0814B8
:104B80002241007F40404040007F020C027F007FB6
:104B90000408107F003E4141413E007F090909069B
:104BA000003E4151215E007F0919294600464949CE
:104BB00049310001017F0101003F4040403F001F9B
:104BC0002040201F003F4038403F0063140814631A
:104BD00000070870080700615149454300007F4104
:104BE000410000552A552A55000041417F0000042C
:104BF0000201020400404040404000000102040065
:104C0000002054545478007F4844443800384444C9
:104C1000442000384444487F003854545418000855
:104C20007E0901020018A4A4A47C007F0804047873
:104C30000000447D4000004080847D00007F1028FB
:104C400044000000417F4000007C04180478007C90
:104C50000804047800384444443800FC2424241810
:104C60000018242418FC007C08040408004854544C
:104C7000542000043F444020003C4040207C001C65
:104C80002040201C003C4030403C00442810284478
:104C9000001CA0A0A07C004464544C440000000010
:104CA0000000000000FF00000002DE200000020102
:104CB00002040402000000000000000000000000E8
:104CC0000000FC000000000002000000000C020CCC
:104CD000020000000000000090D0BCD0BC90000397
:104CE000000300001824FE448C00030207020100A8
:104CF0001824D8B04C80000300010201C038E43809
:104D0000E0000102020102020806000000000000AB
:104D100000000000000000F804020000000102048E
:104D2000000204F800000004020100009060F86036
:104D300090000000010000002020FC202000000066
:104D40000100000000000000000008060000000054
:104D500020202020200000000000000000000000B3
:104D600000000002000000000080601C020004033C
:104D700000000000F8040404F8000102020201002F
:104D80000008FC0000000002030200001884442414
:104D9000180003020202020008042424D8000102C1
:104DA0000202010040B088FC800000000003020005
:104DB0003C242424C400010202020100F824242C13
:104DC000C0000102020201000C04E41C0400000007
:104DD00003000000D8242424D800010202020100AC
:104DE00038444444F80000030202010000001000AF
:104DF0000000000002000000000020000000000091
:104E0000060000000020508804020000000001029B
:104E10009090909090000000000000000002048834
:104E200050200002010000001804C42418000000F3
:104E300002000000F804E494F800010202020200FB
:104E400000E09CF0800002030000030204FC242424
:104E5000D800020302020100F80404040C0001025D
:104E60000202010004FC0404F80002030202010033
:104E700004FC24740C0002030202030004FC2474EA
:104E80000C00020302000000F0080444CC400001C2
:104E90000202010004FC2020FC04020300000302C3
:104EA0000404FC040400020203020200000404FCE7
:104EB000040406040403000004FC24D00C040203D0
:104EC0000200030204FC04000000020302020203C9
:104ED000FC3CC03CFC0003000300030004FC30C4A5
:104EE000FC04020302000300F8040404F8000102B9
:104EF0000202010004FC2424180002030200000046
:104F0000F8848404F80001020207050004FC24640C
:104F10009800020302000302182424448C000302B8
:104F2000020201000C04FC040C0000020302000059
:104F300004FC0000FC04000102020100047C80E08B
:104F40001C040000030000001CE03CE01C00000307
:104F500000030000049C609C0400020300030200A4
:104F6000041CE01C04000002030200000C84641C0A
:104F700004000203020203000000FE02020000001F
:104F800007040400000E30C0000000000001020011
:104F9000000202FE000000040407000000040204F6
:104FA00000000000000000000000000000000808F1
:104FB00008080808000002000000000000000000CF
:104FC0000040A0A0C00000010202030204FC202057
:104FD000C00000030202010000C0202060000001A8
:104FE0000202020000C02024FC00000102020302B1
:104FF00000C0A0A0C0000001020202000020F824AE
:1050000024040002030202000040A0A06020000768
:105010000A0A0A0404FC2020C00002030200030262
:105020000020E4000000000203020000000020E471
:10503000000008080807000004FC80E020200203AC
:10504000020003020404FC0000000202030202004A
:10505000E020E020C00003000300030020E0202047
:10506000C00002030200030200C02020C0000001B3
:105070000202010020E02020C000080F0A02010007
:1050800000C02020E0000001020A0F0820E04020BC
:1050900020000203020000000060A0A02000000227
:1050A000020203000020F8200000000001020200BC
:1050B00020E00020E00000010202030220E0208046
:1050C00060200000030100006080E08060000003B9
:1050D0000003000020608060200002030003020043
:1050E00020E0208060200808070100000020A06068
:1050F0002000000203020200000020DE0200000087
:1051000000070400000000FF00000000000F000086
:105110000002DE200000000407000000020102047B
:105120000402000000000000000000000000000079
:105130000000000000000000000000F80000000077
:10514000000000333000000000100C06100C0600B8
:10515000000000000000000040C07840C07840001F
:10516000043F04043F040400007088FC0830000081
:10517000001820FF211E0000F008F000E0180000D9
:1051800000211C031E211E0000F008887000000092
:105190001E2123241927211010160E0000000000E4
:1051A0000000000000000000000000E01804020001
:1051B000000000071820400000020418E000000072
:1051C0000040201807000000404080F08040400070
:1051D0000202010F01020200000000F000000000C6
:1051E0000101011F0101010000000000000000009A
:1051F00080B070000000000000000000000000000F
:105200000001010101010101000000000000000097
:105210000030300000000000000000008060180432
:10522000006018060100000000E010080810E0000F
:10523000000F102020100F00001010F800000000D8
:105240000020203F2020000000700808088870001F
:10525000003028242221300000300888884830009F
:105260000018202020110E000000C02010F80000BF
:1052700000070424243F240000F808888808080058
:105280000019212020110E0000E01088881800006D
:10529000000F112020110E0000380808C83808003F
:1052A0000000003F000000000070880808887000BF
:1052B000001C222121221C0000E010080810E00040
:1052C0000000312222110F00000000C0C0000000C9
:1052D00000000030300000000000008000000000EE
:1052E00000008060000000000000804020100800E6
:1052F00000010204081020004040404040404000AF
:105300000404040404040400000810204080000089
:105310000020100804020100007048080808F0008E
:105320000000003036010000C030C828E810E0005E
:105330000718272423140B000000C038E0000000E9
:10534000203C23020227382008F888888870000053
:10535000203F202020110E00C03008080808380027
:10536000071820202010080008F808080810E0009E
:10537000203F202020100F0008F88888E80810003F
:10538000203F20202320180008F88888E808100013
:10539000203F200003000000C0300808083800004B
:1053A00007182020221E020008F808000008F8084C
:1053B000203F210101213F20000808F808080000D3
:1053C0000020203F2020000000000808F808080006
:1053D000C08080807F00000008F888C0281808007E
:1053E000203F20012638200008F8080000000000B7
:1053F000203F20202020300008F8F800F8F80800AE
:10540000203F003F003F200008F830C00008F808A7
:10541000203F200007183F00E01008080810E000B7
:105420000F10202020100F0008F808080808F000CE
:10543000203F210101010000E01008080810E000F1
:105440000F18242438504F0008F888888888700086
:10545000203F2000030C3020007088080808380026
:105460000038202121221C00180808F8080818001C
:105470000000203F2000000008F808000008F8089D
:10548000001F202020201F000878880000C838084E
:10549000000007380E010000F80800F80008F800C6
:1054A000033C0700073C0300081868808068180860
:1054B00020302C03032C30200838C800C8380800DE
:1054C0000000203F2000000010080808C83808002D
:1054D0002038262120201800000000FE02020200D1
:1054E0000000007F40404000000C30C00000000081
:1054F000000000010638C00000020202FE000000A9
:10550000004040407F00000000000402020204004E
:10551000000000000000000000000000000000008B
:105520008080808080808080000202040000000073
:10553000000000000000000000008080808000006B
:105540000019242222223F2008F800808000000059
:10555000003F112020110E0000000080808000001C
:10556000000E112020201100000000808088F8002B
:10557000000E112020103F2000008080808000005D
:10558000001F222222221300008080F088888818C1
:105590000020203F202000000000808080808000CC
:1055A000006B94949493600008F800808080000061
:1055B000203F210000203F2000809898000000003C
:1055C0000020203F2020000000000080989800006C
:1055D00000C08080807F000008F80000808080008C
:1055E000203F24022D302000000808F800000000B1
:1055F0000020203F2020000080808080808080006C
:10560000203F20003F20003F8080008080800000FD
:10561000203F210000203F2000008080808000008B
:10562000001F202020201F008080008080000000BC
:1056300080FFA12020110E000000008080808000EB
:10564000000E112020A0FF808080800080808000DC
:1056500020203F2120000100000080808080800009
:105660000033242424241900008080E0808000007E
:105670000000001F202000008080000000808000CB
:10568000001F202020103F2080808000008080802C
:1056900000010E30080601008080008000808080BC
:1056A0000F300C030C300F000080800080808000E1
:1056B0000020312E0E31200080808000008080800C
:1056C00080818E70180601000080808080808000BC
:1056D0000021302C2221300000000000807C0202DA
:1056E00000000000003F404000000000FF000000FC
:1056F00000000000FF0000000002027C80000000AB
:105700000040403F000000000006010102020404C6
:105710000000000000000000000000000000000089
:105720000000000000000000000000000000000079
:105730000000000000000000000000000000000069
:1057400000F0F0F0000000000000000000017F0108
:105750000000000000000000001C1C1C00000000F5
:1057600000008060301C8C60301C0C0000000000C9
:105770000000000000000000000000000000000029
:1057800000000000000000E00000000000E0000059
:105790000086E69F86868686E69F860000011F01BA
:1057A000010101011F010100000080C06020F820FC
:1057B000E0C00000000003070C18FF70E18100004A
:1057C0000000070F10107F100F070000806020609E
:1057D00080000000E02000000F3020309F70DC3798
:1057E0001030C0000000100E03000718101807004A
:1057F0000000C02020E0C0000000000080E01F3852
:10580000E88703C43C040000070F1810100B070DB5
:105810001010080000808C4C3800000000000000D0
:105820000000000000000000000000000000000078
:10583000000000000000000000000000000080E008
:10584000300804000000000000FEFF01000000001E
:10585000000000000000030F182040000004083082
:10586000E0800000000000000000000001FFFE00DA
:1058700000000000004020180F030000000000009E
:10588000000000000000C00000000000004266664A
:105890003C18FF183C666642000000000000030050
:1058A0000000000000000000000080000000000078
:1058B000001010101010FF10101010100000000049
:1058C00000000300000000000000000000000000D5
:1058D00000000000000000000000000000000000C8
:1058E00000808C4C38000000000000000000000028
:1058F0000000000000000000001010101010101038
:105900001010100000000000000000000000000067
:105910000000000000000000000000000000000087
:10592000000000000000000000001C1C1C00000023
:10593000000000000000000000000000E0380C0043
:105940000000000080701C03000000000060380EA2
:105950000100000000000000000080C06020206006
:10596000C080000000FEFF010000000001FFFE00FB
:105970000001070E181010180E07010000008080AB
:1059800080C0E000000000000000000000FFFF00F9
:105990000000000000001010101F1F101010000069
:1059A0000080402020202060C08000000003030011
:1059B000804020381F070000001C1A1918181818FA
:1059C000181F00000080C020202060C08000000060
:1059D000000303001010182FE780000000070F10CD
:1059E000101010180F070000000000000000C0E0B9
:1059F000F000000000C0B088868180FFFF8080003A
:105A0000000000000010101F1F1010000000E060D8
:105A1000606060606060000000003F1008080818C7
:105A2000F0E0000000070B101010101C0F03000026
:105A3000000080C040202020E0C0000000FCFF21CA
:105A40001008080818F0E0000001070C18101010EA
:105A5000080F03000000C0E06060606060E060006C
:105A6000000003000000E018070000000000000034
:105A7000001F1F00000000000080C06020202020C8
:105A800060C080000087EF2C1818303068CF83008A
:105A900000070F0810101010180F07000000C0C0FA
:105AA00020202020C0800000001F3F604040402098
:105AB00010FFFE0000000C1C101010080F03000067
:105AC00000000000000000000000000000000000D6
:105AD000000E0E0E0000000000000000001C1C1C48
:105AE00000000000000000000000000000000000B6
:105AF00000000000000C0C0000000000000000008E
:105B00000058380000000000000000000000008085
:105B10004020100000001028448201000000000016
:105B20000000000000000102040810000000000056
:105B300000000000000000000084848484848484C9
:105B400084848400000000000000000000000000C9
:105B50000000102040800000000000000000000055
:105B60000000018244281000000010080402010017
:105B70000000000000C020201010101030E0C00015
:105B80000003030000F010080C07030000000000F1
:105B90001C1C1C0000000000000000C04060202011
:105BA0002040C00000FCFF01F00E03C1FE03807F17
:105BB0000001070E08111110110904020000000075
:105BC00080E0E000000000000000807C4340477F50
:105BD000F880000010181F1000000000131F1C1098
:105BE00020E0E02020202060C080000000FFFF10A7
:105BF000101010182FE78000101F1F101010101029
:105C0000180F0700000080C0402020202060E00026
:105C100000FCFF0100000000000001000001070E71
:105C2000181010100804030020E0E020202020407D
:105C3000C080000000FFFF000000000001FFFE0028
:105C4000101F1F10101018080E07010020E0E020A0
:105C5000202020202060800000FFFF101010107C0A
:105C600000000000101F1F10101010101018060068
:105C700020E0E020202020206060800000FFFF1056
:105C80001010107C00000100101F1F100000000009
:105C900000000000000080C06020202040E00000E4
:105CA00000FCFF0100004040C0C140400001070E61
:105CB000181010100F0F000020E0E020000000007E
:105CC00020E0E02000FFFF101010101010FFFF0078
:105CD000101F1F1000000000101F1F1000002020C8
:105CE00020E0E020202000000000000000FFFF0076
:105CF0000000000000001010101F1F101010000006
:105D000000000000202020E0E02020200000000013
:105D1000000000FFFF0000000060E0808080C07F86
:105D20003F00000020E0E020000020A060202000D4
:105D300000FFFF30187CE3C000000000101F1F10A0
:105D4000000001131F1C181020E0E02000000000DC
:105D50000000000000FFFF00000000000000000045
:105D6000101F1F10101010101018060020E0E0E0A7
:105D700000000000E0E0E02000FF013FFEC0E01E68
:105D800001FFFF00101F1000031F0300101F1F1052
:105D900020E0E0C0000000000020E02000FF000341
:105DA000071C78E08000FF00101F100000000000BA
:105DB000030F1F00000080C060202060C080000032
:105DC00000FEFF010000000000FFFE000001070EC2
:105DD000181010180C07010020E0E02020202020DF
:105DE00060C0800000FFFF2020202020301F0F0017
:105DF000101F1F100000000000000000000080C005
:105E000060202060C080000000FEFF010000000054
:105E100000FFFE000001070E1111133C7C672100FA
:105E200020E0E0202020202060C0800000FFFF1044
:105E30001030F0D0080F0700101F1F1000000003E3
:105E40000F1C10100080C060202020204040E00087
:105E500000070F0C1818303060E08100001F0C089C
:105E600010101010180F07008060202020E0E020A4
:105E7000202060800100000000FFFF000000000102
:105E800000000000101F1F100000000020E0E020B4
:105E9000000000000020E02000FFFF0000000000E4
:105EA0000000FF0000070F18101010101008070066
:105EB0002060E0E02000000020E060200000077F7C
:105EC000F88000807C03000000000000071F1C0712
:105ED0000000000020E0E02000E0E0200020E020C2
:105EE0000007FFF8E01FFFFCE01F00000000031F99
:105EF0000300011F03000000002060E0A00000205C
:105F0000E0602000000000038F7CF8C60100000064
:105F10000010181E130001171F1810002060E0E089
:105F20002000000020E06020000001073EF8E0189B
:105F30000700000000000010101F1F1010000000DC
:105F400000806020202020A0E0E020000000000071
:105F5000C0F03E0F0300000000101C1F17101010AF
:105F6000101806000000000000FC040404040400F3
:105F70000000000000FF0000000000000000000022
:105F8000007F404040404000000010E00000000062
:105F90000000000000000000031C60800000000002
:105FA00000000000000000030C70800000000404EA
:105FB000040404FC0000000000000000000000FFDA
:105FC00000000000000040404040407F0000000012
:105FD00000000010080C040C081000000000000075
:105FE00000000000000000000000000000000000B1
:105FF00000000000000000000000000000000000A1
:106000000000000000000000000000008080808090
:106010008080808080808080000000040408080068
:106020000000000000000000000000000000000070
:106030000000000000000000000000000000000060
:106040000000000000000000000098D844642424F0
:10605000FCF80000000F1F18101010081F1F101868
:106060000020E0F000000000000000000000FFFF42
:10607000180804040CF8F00000001F0F181010108E
:10608000180F0300000000000000000000000000E6
:1060900000E0F8180404043C3800000000030F0C72
:1060A0001010101008060000000000000000002082
:1060B000E0F0000000E0F81C04040408FFFF00000A
:1060C00000030F18101010081F0F08000000000038
:1060D00000000000000000000000E0F848444444D4
:1060E0004C7870000000030F0C181010100804000A
:1060F0000000000080C0602020E0C0000004040414
:10610000FFFF040404040000000010101F1F101003
:10611000100000000000000000000000000000006F
:10612000000070F88C04048CF874040C007076CFB6
:106130008D8D8D89C87870000020E0F0000000008F
:10614000000000000000FFFF08040404FCF8000049
:1061500000101F1F100000101F1F10000000000083
:1061600000606000000000000000040404FCFC006B
:106170000000000000001010101F1F101010000081
:10618000000000000000006060000000000000004F
:10619000040404FCFC0000000000C0C08080C07F3C
:1061A0003F0000000020E0F00000000000000000C0
:1061B0000000FFFF80C0F41C0404000000101F1F3B
:1061C0001100031F1C1010000000202020E0F00030
:1061D000000000000000000000FFFF0000000000C1
:1061E00000001010101F1F10101000000000000011
:1061F000000000000000000004FCFC0804FCFC0897
:1062000004FCFC00101F1F10001F1F10001F1F1098
:106210000000000000000000000000000004FCFC82
:1062200008080404FCF8000000101F1F10000010F4
:106230001F1F100000000000000000000000000010
:1062400000E0F0180C04040C18F0E00000030F0C40
:10625000101010100C0F03000000000000000000E0
:10626000000000000004FCFC080404040CF8F0002A
:106270000080FFFF889010101C0F0300000000003A
:10628000000000000000000000E0F81C0404040806
:10629000F8FC000000030F1810109088FFFF80002A
:1062A000000000000000000000000000040404FCE6
:1062B000FC100804040C0C001010101F1F1010100C
:1062C00000000000000000000000000000000000CE
:1062D00000003078CCC48484840C1C0000001E189C
:1062E00010101011190F06000000000000C000007F
:1062F0000000000000040404FFFF04040400000088
:10630000000000000F1F1010100C00000000000023
:1063100000000000000000000004FCFE000000047B
:10632000FCFE000000000F1F181010081F0F0800CF
:1063300000000000000000000000000000040C3C11
:10634000FCC40000C43C0C0400000000010F1E0E41
:10635000010000000000000000000000000000003C
:10636000043CFCC400E47CFC84807C040000071F27
:10637000070000071F0700000000000000000000E9
:10638000000000000004041C7CE4C0341C04040071
:106390000010101C1601131F1C1810000000000034
:1063A000000000000000000000040C3CFCC400C41D
:1063B0003C0404000000C080C1370E010000000052
:1063C00000000000000000000000000000001C04AD
:1063D00004C4F47C1C0400000000101C1F171110E2
:1063E00010180E0000000000000000F80C0400006F
:1063F00000000000001028EF000000000000000076
:106400000000003F60400000000000000000FF00AE
:1064100000000000000000000000FF00000000007D
:10642000000000000000FF00000000000000040C5D
:10643000F80000000000000000000000EF2810003D
:1064400000000000000040603F000000000000006D
:106450000018060202040810202030080000000086
:10646000000000000000000000000000000000002C
:1064700000000000FFFFE7C399BDFFFFFFFFBD99CC
:10648000C3E7FFFFFFDFBFDFEFF7FBFFFFBDDBF77A
:10649000EFDBBDFF000000000000000E7EFEC6E046
:1064A000FE3E0E060600FEFE060606060EBCF8E0E0
:1064B0000000C0C0C0C080C0C0C0C000000000C09C
:1064C000C0C0CECE000000000000C0C0C0C000C0F0
:1064D000C0C0C0C000000080C0C0C0C0C0800000FC
:1064E00000000000000000000000000000000000AC
:1064F000000000000000000000000000000000009C
:10650000000000000000000000000000000000008B
:1065100000000000000000008080E0F83C0FBFFF9A
:10652000E0800080E0FFBF8180C0C0E0783F0F00C6
:106530008080E0FFBF878301000101000080808030
:10654000E0FFBF81800000000000003FFFF0F83E48
:106550000F03000000FEFFCF8D8C8CEDEF0F0000CD
:1065600000000000000000000808FE090903000008
:106570000202FF0000000080800000000000020214
:10658000FF0000000080800000000000DF09090912
:10659000F100000000000000010101010000010104
:1065A000010100010101010101010000000010F0E2
:1065B0008181810101818180008080800001010151
:1065C00001010181818000808000000081818000C4
:1065D0000000808090000101818101818000000025
:1065E000000000000000001010F101010100008017
:1065F0008181010111F08081810000000000010112
:106600000101010000010100000000000001010182
:10661000000000000000000000000000000000007A
:106620000000000000000000000000000000001F4B
:106630001010100F00404166180601000000000015
:1066400000000010101F11100000000F1212120B9A
:10665000000010101F101000101F1100101F10005C
:106660000000000000000010101F101000000914AE
:1066700012121F10001F1010100F00000000000069
:10668000000000000000000000000000000000000A
:106690000000000000FCFAF6EEDEBE7EFEFEFEFE0E
:1066A000FEFEFEFEFEFEFEFEFEFEFEFE7EBEDEEEFA
:1066B000F6FAFC0000FFFFFFFFFFFFFFFEFDFBF708
:1066C000EFDFBF7F7FBFDFEFF7FBFDFEFFFFFFFFC9
:1066D000FFFFFF0000FFFFFFFFFFFFFF7FBFDFEFB8
:1066E000F7FBFDFEFEFDFBF7EFDFBF7FFFFFFFFFC8
:1066F000FFFFFF00003F5F6F777B7D7E7F7F7F7FA7
:106700007F7F7F7F7F7F7F7F7F7F7F7F7E7D7B77A8
:106710006F5F3F00FFFFFFFF070707C7C7C7C7C778
:10672000C7C7C7C7C7C7C7C7C7C7C7C7C707070739
:10673000FFFFFFFFFFFFFFFF000000FFFFFFFFFF66
:10674000FFFFFFFFFFFFFFFFFFFFFFFFFF00000056
:10675000FFFFFFFFFFFFFFFFC0C0C0C7C7C7C7C71E
:10676000C7C7C7C7C7C7C7C7C7C7C7C7C7C0C0C0CE
:10677000FFFFFFFFFFFFFFFFFFE7C3C1C1C1C1C1B3
:10678000C1C1C1C1C1C1C1C1C1C1C1C1C1C3E7FF93
:10679000FFFFFFFFFFFFFFFFFFFFFFFFFFFFFFFF09
:1067A000FFFFFFFFFFFFFF1FDFFF030307070707D1
:1067B000070707FFFF07050505053D212F2F2F2F91
:1067C0002F2F2F2FEF0FFF00FFFFF8F8F8F8F8F842
:1067D000F8F8F8FFFF0000000000000000000000D3
:1067E000000000003F00FD00FFFF3F3F7F7F7F7FF5
:1067F0007F7F7FFFFFF8F8F8F8F8F8F8F8F8F8F876
:10680000F8F8F8F8FFFFFFF0F7FF808080808080C5
:10681000808080FFFFFF7F3F9FCFE7F3FBF9FDFD07
:10682000FDFDFDFDFDFDFDFDFDFDF9FBF3E7CF9F4A
:106830003F7FFFFFFF01FCFFFFFFFFFFFFFFFFFFA9
:10684000FF7FBF9F0F0F0703C3E1F8FCFFFFFFFFB0
:10685000FFFC01FFFF803FFFFFFFFFFF3F1F87D3CC
:10686000CCEEF7F3FBFCFEFFFFFFFFFFFFFFFFFF98
:10687000FF3F80FFFFFFFEFCF9F3E7CFDF9FBFBFC5
:10688000BFBFBFBFBFBFBFBFBFBF9FDFCFE7F3F972
:10689000FCFEFFFFFF0101F1F1F1F1F1F1F1F1F186
:1068A000F1F1F1F1F1F1F1F1F1F1717171F1F1F158
:1068B000F10101FFFF0000FFFF1F1FFFFF0707FFA0
:1068C000FF0101FFFF0FC3F9FCFEFEFEFEFCFCF121
:1068D000071EF8FFFF00007F7F60607F7F60607FA2
:1068E0007F60607F7F7861C79F9FBFBFBF9FCFC71B
:1068F000903E67FFFFF8F8F8F888888888888888CD
:10690000888888888888888888898989898988F892
:10691000F9FFFEFFFFFF7F03019D9D81033FFFFF06
:10692000FF0301FDFD0103FFFFFF7F03019D9D812B
:10693000033FFFFFFFF0C00E1F9F9F1F0FC0F0FF20
:10694000FF0000FFFF0000FFFFF0C00E1F9F9F1F12
:106950000FC0F0FFFFFFFF0000FFFF0000FFFF0F71
:1069600003E0F0F9F9F8F0030FFFFF0000FFFF006C
:1069700000FFFFFFFFFFFFC080BFBF80C0FFFFFF22
:10698000FCC081B9B981C0FCFFFFFFC080BFBF80E0
:10699000C0FFFFFFFFFF9F9FFFF3F3FFFFF3F3FF36
:1069A000FFF3F3FFFFF3F3FFFFF3F3FFFFF3F3FF57
:1069B0009F9FFFFFFFFF9999FFFFFFFFFFFFFFFF73
:1069C000FFFFFF79381888C0E0010107FFFFFFFFD4
:1069D0009999FFFFFF0F0703F1F9F9F9F9F9F9F1B7
:1069E000E10100FCFEFFFFFFFFFEFEFFFFFFFFFFD8
:1069F0009999FFFFFFF0E0C0878F8F8F8F8F8F8F68
:106A0000C7E0F0FFFFCFCFFFFFCFCFFFFFCFCFFF1C
:106A1000F9F9FFFFFF0101F9F919D9D9D9D9D9D964
:106A2000D9D9D9D9D9D9D9D9D9D9D9D9D9D919F976
:106A3000F90101FFFF0000FFFF00FFFFFFFFFFFF65
:106A4000FF3F31313131FFFFFFFFFFFFFFFF00FF4D
:106A5000FF0000FFFF0000FFFF00FFFFFFFFFFFF41
:106A6000FF3F000000003FFFFFFFFFFFFFFF00FFB1
:106A7000FF0000FFFF80809F9F989B9B9B9B9B9BA1
:106A80009B9B9B9B9B9B9B9B9B9B9B9B9B9B989F55
:106A90009F8080FFFFFFFFFFFFFFFFFFFFFF7F3FA4
:106AA0001F0F0703030303030383C3E3F3FBFFFF8A
:106AB000FFFFFFFFFFFFFFFFFFFFFFFFFFF9F8F8FA
:106AC000F0E0E0C000000002070F1F1F3FFFFFFFC4
:106AD000FFFFFFFFFFFFFFFFFFFFFF3F0701010376
:106AE00007030100000080C0E0F0F8FCFFFFFFFF9B
:106AF000FFFFFFFFFFFFFFFFCFC3C0C0C0C0E0E04C
:106B0000E0E0F0F0F0F0F0F3F7FFFFFFFFFFFFFF32
:106B1000FFFFFFFFFFFFFFFFFFFF7F3F1F8F4727A5
:106B2000E7CF993163C78F9FBFFFFFFFFFFFFFFFD5
:106B3000FFFFFFFFFF1FC72391C8E4F2FBFF3F1FCA
:106B40008FC7E3F1F8FCFF7F3F9F9F3F63C78F1F15
:106B50003F7FFFFFFF003FC03FFFFFFFFFF8E0E781
:106B6000CFCFC7E7F3F9FCFEFFFF7F3F9E8CE1F339
:106B7000FEFEFFFFFFFFFCF8F1E2E7CFCF8F9F9F04
:106B80009F9F8F8FCFC7E7F3F1F8FCFEFFFFFFFF5A
:106B9000FFFFFFFFFFFFFFFFFFFFFFFFFFFFFFFF05
:106BA000FFFFFFFFFFFFFFFFFFFFFF07F31B1B1BA5
:106BB000F307FFFFFFFFFFFFFFFFFFFFFFFFFF9F49
:106BC000FFDFDFDFFFDFDFFFDFDFDFFCF1E7EFE726
:106BD000F1FCFFFFFFFF07F31B1B1BF307FFFFE8A1
:106BE000EFFFEFEFFFEFEFEFFFEFEFFFEFEFEFFF65
:106BF000EF2FFFFFFFFFFCF1E7CFC7D1DCFFFFDF87
:106C0000DFDFFFDFDFFFDFDFDFFFDFDFFFDFDFFFF4
:106C1000DFD1FFFFFFFF7F7FE7CF7F331F1F0F070E
:106C20000707070707070707070F1F1F3F7FFFFF1C
:106C3000FFFFFFFFFFFF1F07032020000F1EFC9038
:106C400072FBF9F9F9F9FBF2F0C080000020200393
:106C5000071F7FFFFF000002424000007CFFFFFF94
:106C6000FEFCF9C3C7FFFFFFFFFFFF7C00004042AF
:106C7000020000FFFFFEF0C0C0C8C8C0C0C1C7CD41
:106C8000CFCDCDCFCDCDCFCFCDC7C1C0C0C8C8C06F
:106C9000C0F0FEFFFFFF1F07070303030307071FE3
:106CA0007FBFDFEF0FFFFF7F1F070703030303070C
:106CB000071FFFFFFFFFFEFCF000000000F0FCFEDE
:106CC000FFFFFFFFFCFDFEFFFEFCF000000000F0F8
:106CD000FCFEFFFFFFFFFFFF7E000000007EFFFFC6
:106CE000FFFFFFFFFFFFFFFFFFFF7E000000007EB2
:106CF000FFFFFFFFFFFFFFFFFF80808080FFFFFFA0
:106D0000FFFFFFFFFFFFFFFFFFFFFF80808080FF8F
:106D1000FFFFFFFF346D0108000000207400000039
:106D200074380108A86D010874000020D413000015
:106D3000843801080100000010000000000000007D
:106D40000024F400007C01080000000000000000A6
:106D50000000000000000000000000000000000033
:106D60000000000000000000007C0108008000001E
:106D700020000000000000000100000033000000BF
:106D80000000000000000000000000000000000003
:106D900000000000000000000000000000000000F3
:086DA0000000000000000000EB
:040000050800C0ED42
:00000001FF
